{
  "_format": "hh-sol-artifact-1",
  "contractName": "BlyToken",
  "sourceName": "contracts/BlyToken.sol",
  "abi": [
    {
      "inputs": [],
      "stateMutability": "nonpayable",
      "type": "constructor"
    },
    {
      "anonymous": false,
      "inputs": [
        {
          "indexed": true,
          "internalType": "address",
          "name": "owner",
          "type": "address"
        },
        {
          "indexed": true,
          "internalType": "address",
          "name": "approved",
          "type": "address"
        },
        {
          "indexed": true,
          "internalType": "uint256",
          "name": "tokenId",
          "type": "uint256"
        }
      ],
      "name": "Approval",
      "type": "event"
    },
    {
      "anonymous": false,
      "inputs": [
        {
          "indexed": true,
          "internalType": "address",
          "name": "owner",
          "type": "address"
        },
        {
          "indexed": true,
          "internalType": "address",
          "name": "operator",
          "type": "address"
        },
        {
          "indexed": false,
          "internalType": "bool",
          "name": "approved",
          "type": "bool"
        }
      ],
      "name": "ApprovalForAll",
      "type": "event"
    },
    {
      "anonymous": false,
      "inputs": [
        {
          "indexed": true,
          "internalType": "address",
          "name": "from",
          "type": "address"
        },
        {
          "indexed": true,
          "internalType": "address",
          "name": "to",
          "type": "address"
        },
        {
          "indexed": true,
          "internalType": "uint256",
          "name": "tokenId",
          "type": "uint256"
        }
      ],
      "name": "Transfer",
      "type": "event"
    },
    {
      "inputs": [
        {
          "internalType": "address",
          "name": "to",
          "type": "address"
        },
        {
          "internalType": "uint256",
          "name": "tokenId",
          "type": "uint256"
        }
      ],
      "name": "approve",
      "outputs": [],
      "stateMutability": "nonpayable",
      "type": "function"
    },
    {
      "inputs": [
        {
          "internalType": "address",
          "name": "owner",
          "type": "address"
        }
      ],
      "name": "balanceOf",
      "outputs": [
        {
          "internalType": "uint256",
          "name": "",
          "type": "uint256"
        }
      ],
      "stateMutability": "view",
      "type": "function"
    },
    {
      "inputs": [
        {
          "internalType": "uint256",
          "name": "tokenId",
          "type": "uint256"
        }
      ],
      "name": "getApproved",
      "outputs": [
        {
          "internalType": "address",
          "name": "",
          "type": "address"
        }
      ],
      "stateMutability": "view",
      "type": "function"
    },
    {
      "inputs": [
        {
          "internalType": "address",
          "name": "owner",
          "type": "address"
        },
        {
          "internalType": "address",
          "name": "operator",
          "type": "address"
        }
      ],
      "name": "isApprovedForAll",
      "outputs": [
        {
          "internalType": "bool",
          "name": "",
          "type": "bool"
        }
      ],
      "stateMutability": "view",
      "type": "function"
    },
    {
      "inputs": [
        {
          "internalType": "string",
          "name": "_tokenURI",
          "type": "string"
        }
      ],
      "name": "mint",
      "outputs": [
        {
          "internalType": "uint256",
          "name": "",
          "type": "uint256"
        }
      ],
      "stateMutability": "nonpayable",
      "type": "function"
    },
    {
      "inputs": [],
      "name": "name",
      "outputs": [
        {
          "internalType": "string",
          "name": "",
          "type": "string"
        }
      ],
      "stateMutability": "view",
      "type": "function"
    },
    {
      "inputs": [
        {
          "internalType": "uint256",
          "name": "tokenId",
          "type": "uint256"
        }
      ],
      "name": "ownerOf",
      "outputs": [
        {
          "internalType": "address",
          "name": "",
          "type": "address"
        }
      ],
      "stateMutability": "view",
      "type": "function"
    },
    {
      "inputs": [
        {
          "internalType": "address",
          "name": "from",
          "type": "address"
        },
        {
          "internalType": "address",
          "name": "to",
          "type": "address"
        },
        {
          "internalType": "uint256",
          "name": "tokenId",
          "type": "uint256"
        }
      ],
      "name": "safeTransferFrom",
      "outputs": [],
      "stateMutability": "nonpayable",
      "type": "function"
    },
    {
      "inputs": [
        {
          "internalType": "address",
          "name": "from",
          "type": "address"
        },
        {
          "internalType": "address",
          "name": "to",
          "type": "address"
        },
        {
          "internalType": "uint256",
          "name": "tokenId",
          "type": "uint256"
        },
        {
          "internalType": "bytes",
          "name": "data",
          "type": "bytes"
        }
      ],
      "name": "safeTransferFrom",
      "outputs": [],
      "stateMutability": "nonpayable",
      "type": "function"
    },
    {
      "inputs": [
        {
          "internalType": "address",
          "name": "operator",
          "type": "address"
        },
        {
          "internalType": "bool",
          "name": "approved",
          "type": "bool"
        }
      ],
      "name": "setApprovalForAll",
      "outputs": [],
      "stateMutability": "nonpayable",
      "type": "function"
    },
    {
      "inputs": [
        {
          "internalType": "bytes4",
          "name": "interfaceId",
          "type": "bytes4"
        }
      ],
      "name": "supportsInterface",
      "outputs": [
        {
          "internalType": "bool",
          "name": "",
          "type": "bool"
        }
      ],
      "stateMutability": "view",
      "type": "function"
    },
    {
      "inputs": [],
      "name": "symbol",
      "outputs": [
        {
          "internalType": "string",
          "name": "",
          "type": "string"
        }
      ],
      "stateMutability": "view",
      "type": "function"
    },
    {
      "inputs": [],
      "name": "tokenId",
      "outputs": [
        {
          "internalType": "uint256",
          "name": "",
          "type": "uint256"
        }
      ],
      "stateMutability": "view",
      "type": "function"
    },
    {
      "inputs": [
        {
          "internalType": "uint256",
          "name": "tokenId",
          "type": "uint256"
        }
      ],
      "name": "tokenURI",
      "outputs": [
        {
          "internalType": "string",
          "name": "",
          "type": "string"
        }
      ],
      "stateMutability": "view",
      "type": "function"
    },
    {
      "inputs": [
        {
          "internalType": "address",
          "name": "from",
          "type": "address"
        },
        {
          "internalType": "address",
          "name": "to",
          "type": "address"
        },
        {
          "internalType": "uint256",
          "name": "tokenId",
          "type": "uint256"
        }
      ],
      "name": "transferFrom",
      "outputs": [],
      "stateMutability": "nonpayable",
      "type": "function"
    }
  ],
  "bytecode": "0x60806040523480156200001157600080fd5b506040518060400160405280600981526020017f426c7920546f6b656e00000000000000000000000000000000000000000000008152506040518060400160405280600381526020017f424c590000000000000000000000000000000000000000000000000000000000815250816000908051906020019062000096929190620000b8565b508060019080519060200190620000af929190620000b8565b505050620001cc565b828054620000c69062000197565b90600052602060002090601f016020900481019282620000ea576000855562000136565b82601f106200010557805160ff191683800117855562000136565b8280016001018555821562000136579182015b828111156200013557825182559160200191906001019062000118565b5b50905062000145919062000149565b5090565b5b80821115620001645760008160009055506001016200014a565b5090565b7f4e487b7100000000000000000000000000000000000000000000000000000000600052602260045260246000fd5b60006002820490506001821680620001b057607f821691505b602082108103620001c657620001c562000168565b5b50919050565b61290380620001dc6000396000f3fe608060405234801561001057600080fd5b50600436106100f55760003560e01c80636352211e11610097578063b88d4fde11610066578063b88d4fde14610284578063c87b56dd146102a0578063d85d3d27146102d0578063e985e9c514610300576100f5565b80636352211e146101ea57806370a082311461021a57806395d89b411461024a578063a22cb46514610268576100f5565b8063095ea7b3116100d3578063095ea7b31461017857806317d70f7c1461019457806323b872dd146101b257806342842e0e146101ce576100f5565b806301ffc9a7146100fa57806306fdde031461012a578063081812fc14610148575b600080fd5b610114600480360381019061010f91906118e8565b610330565b6040516101219190611930565b60405180910390f35b610132610412565b60405161013f91906119e4565b60405180910390f35b610162600480360381019061015d9190611a3c565b6104a4565b60405161016f9190611aaa565b60405180910390f35b610192600480360381019061018d9190611af1565b6104ea565b005b61019c610601565b6040516101a99190611b40565b60405180910390f35b6101cc60048036038101906101c79190611b5b565b610607565b005b6101e860048036038101906101e39190611b5b565b610667565b005b61020460048036038101906101ff9190611a3c565b610687565b6040516102119190611aaa565b60405180910390f35b610234600480360381019061022f9190611bae565b610738565b6040516102419190611b40565b60405180910390f35b6102526107ef565b60405161025f91906119e4565b60405180910390f35b610282600480360381019061027d9190611c07565b610881565b005b61029e60048036038101906102999190611d7c565b610897565b005b6102ba60048036038101906102b59190611a3c565b6108f9565b6040516102c791906119e4565b60405180910390f35b6102ea60048036038101906102e59190611ea0565b610a0b565b6040516102f79190611b40565b60405180910390f35b61031a60048036038101906103159190611ee9565b610a47565b6040516103279190611930565b60405180910390f35b60007f80ac58cd000000000000000000000000000000000000000000000000000000007bffffffffffffffffffffffffffffffffffffffffffffffffffffffff1916827bffffffffffffffffffffffffffffffffffffffffffffffffffffffff191614806103fb57507f5b5e139f000000000000000000000000000000000000000000000000000000007bffffffffffffffffffffffffffffffffffffffffffffffffffffffff1916827bffffffffffffffffffffffffffffffffffffffffffffffffffffffff1916145b8061040b575061040a82610adb565b5b9050919050565b60606000805461042190611f58565b80601f016020809104026020016040519081016040528092919081815260200182805461044d90611f58565b801561049a5780601f1061046f5761010080835404028352916020019161049a565b820191906000526020600020905b81548152906001019060200180831161047d57829003601f168201915b5050505050905090565b60006104af82610b45565b6004600083815260200190815260200160002060009054906101000a900473ffffffffffffffffffffffffffffffffffffffff169050919050565b60006104f582610687565b90508073ffffffffffffffffffffffffffffffffffffffff168373ffffffffffffffffffffffffffffffffffffffff1603610565576040517f08c379a000000000000000000000000000000000000000000000000000000000815260040161055c90611ffb565b60405180910390fd5b8073ffffffffffffffffffffffffffffffffffffffff16610584610b90565b73ffffffffffffffffffffffffffffffffffffffff1614806105b357506105b2816105ad610b90565b610a47565b5b6105f2576040517f08c379a00000000000000000000000000000000000000000000000000000000081526004016105e99061208d565b60405180910390fd5b6105fc8383610b98565b505050565b60075481565b610618610612610b90565b82610c51565b610657576040517f08c379a000000000000000000000000000000000000000000000000000000000815260040161064e9061211f565b60405180910390fd5b610662838383610ce6565b505050565b61068283838360405180602001604052806000815250610897565b505050565b6000806002600084815260200190815260200160002060009054906101000a900473ffffffffffffffffffffffffffffffffffffffff169050600073ffffffffffffffffffffffffffffffffffffffff168173ffffffffffffffffffffffffffffffffffffffff160361072f576040517f08c379a00000000000000000000000000000000000000000000000000000000081526004016107269061218b565b60405180910390fd5b80915050919050565b60008073ffffffffffffffffffffffffffffffffffffffff168273ffffffffffffffffffffffffffffffffffffffff16036107a8576040517f08c379a000000000000000000000000000000000000000000000000000000000815260040161079f9061221d565b60405180910390fd5b600360008373ffffffffffffffffffffffffffffffffffffffff1673ffffffffffffffffffffffffffffffffffffffff168152602001908152602001600020549050919050565b6060600180546107fe90611f58565b80601f016020809104026020016040519081016040528092919081815260200182805461082a90611f58565b80156108775780601f1061084c57610100808354040283529160200191610877565b820191906000526020600020905b81548152906001019060200180831161085a57829003601f168201915b5050505050905090565b61089361088c610b90565b8383610f4c565b5050565b6108a86108a2610b90565b83610c51565b6108e7576040517f08c379a00000000000000000000000000000000000000000000000000000000081526004016108de9061211f565b60405180910390fd5b6108f3848484846110b8565b50505050565b606061090482610b45565b600060066000848152602001908152602001600020805461092490611f58565b80601f016020809104026020016040519081016040528092919081815260200182805461095090611f58565b801561099d5780601f106109725761010080835404028352916020019161099d565b820191906000526020600020905b81548152906001019060200180831161098057829003601f168201915b5050505050905060006109ae611114565b905060008151036109c3578192505050610a06565b6000825111156109f85780826040516020016109e0929190612279565b60405160208183030381529060405292505050610a06565b610a018461112b565b925050505b919050565b600060076000815480929190610a20906122cc565b9190505550610a3133600754611193565b610a3d600754836111b1565b6007549050919050565b6000600560008473ffffffffffffffffffffffffffffffffffffffff1673ffffffffffffffffffffffffffffffffffffffff16815260200190815260200160002060008373ffffffffffffffffffffffffffffffffffffffff1673ffffffffffffffffffffffffffffffffffffffff16815260200190815260200160002060009054906101000a900460ff16905092915050565b60007f01ffc9a7000000000000000000000000000000000000000000000000000000007bffffffffffffffffffffffffffffffffffffffffffffffffffffffff1916827bffffffffffffffffffffffffffffffffffffffffffffffffffffffff1916149050919050565b610b4e81611225565b610b8d576040517f08c379a0000000000000000000000000000000000000000000000000000000008152600401610b849061218b565b60405180910390fd5b50565b600033905090565b816004600083815260200190815260200160002060006101000a81548173ffffffffffffffffffffffffffffffffffffffff021916908373ffffffffffffffffffffffffffffffffffffffff160217905550808273ffffffffffffffffffffffffffffffffffffffff16610c0b83610687565b73ffffffffffffffffffffffffffffffffffffffff167f8c5be1e5ebec7d5bd14f71427d1e84f3dd0314c0f7b2291e5b200ac8c7c3b92560405160405180910390a45050565b600080610c5d83610687565b90508073ffffffffffffffffffffffffffffffffffffffff168473ffffffffffffffffffffffffffffffffffffffff161480610c9f5750610c9e8185610a47565b5b80610cdd57508373ffffffffffffffffffffffffffffffffffffffff16610cc5846104a4565b73ffffffffffffffffffffffffffffffffffffffff16145b91505092915050565b8273ffffffffffffffffffffffffffffffffffffffff16610d0682610687565b73ffffffffffffffffffffffffffffffffffffffff1614610d5c576040517f08c379a0000000000000000000000000000000000000000000000000000000008152600401610d5390612386565b60405180910390fd5b600073ffffffffffffffffffffffffffffffffffffffff168273ffffffffffffffffffffffffffffffffffffffff1603610dcb576040517f08c379a0000000000000000000000000000000000000000000000000000000008152600401610dc290612418565b60405180910390fd5b610dd6838383611291565b610de1600082610b98565b6001600360008573ffffffffffffffffffffffffffffffffffffffff1673ffffffffffffffffffffffffffffffffffffffff1681526020019081526020016000206000828254610e319190612438565b925050819055506001600360008473ffffffffffffffffffffffffffffffffffffffff1673ffffffffffffffffffffffffffffffffffffffff1681526020019081526020016000206000828254610e88919061246c565b92505081905550816002600083815260200190815260200160002060006101000a81548173ffffffffffffffffffffffffffffffffffffffff021916908373ffffffffffffffffffffffffffffffffffffffff160217905550808273ffffffffffffffffffffffffffffffffffffffff168473ffffffffffffffffffffffffffffffffffffffff167fddf252ad1be2c89b69c2b068fc378daa952ba7f163c4a11628f55a4df523b3ef60405160405180910390a4610f47838383611296565b505050565b8173ffffffffffffffffffffffffffffffffffffffff168373ffffffffffffffffffffffffffffffffffffffff1603610fba576040517f08c379a0000000000000000000000000000000000000000000000000000000008152600401610fb19061250e565b60405180910390fd5b80600560008573ffffffffffffffffffffffffffffffffffffffff1673ffffffffffffffffffffffffffffffffffffffff16815260200190815260200160002060008473ffffffffffffffffffffffffffffffffffffffff1673ffffffffffffffffffffffffffffffffffffffff16815260200190815260200160002060006101000a81548160ff0219169083151502179055508173ffffffffffffffffffffffffffffffffffffffff168373ffffffffffffffffffffffffffffffffffffffff167f17307eab39ab6107e8899845ad3d59bd9653f200f220920489ca2b5937696c31836040516110ab9190611930565b60405180910390a3505050565b6110c3848484610ce6565b6110cf8484848461129b565b61110e576040517f08c379a0000000000000000000000000000000000000000000000000000000008152600401611105906125a0565b60405180910390fd5b50505050565b606060405180602001604052806000815250905090565b606061113682610b45565b6000611140611114565b90506000815111611160576040518060200160405280600081525061118b565b8061116a84611422565b60405160200161117b929190612279565b6040516020818303038152906040525b915050919050565b6111ad828260405180602001604052806000815250611582565b5050565b6111ba82611225565b6111f9576040517f08c379a00000000000000000000000000000000000000000000000000000000081526004016111f090612632565b60405180910390fd5b806006600084815260200190815260200160002090805190602001906112209291906117d9565b505050565b60008073ffffffffffffffffffffffffffffffffffffffff166002600084815260200190815260200160002060009054906101000a900473ffffffffffffffffffffffffffffffffffffffff1673ffffffffffffffffffffffffffffffffffffffff1614159050919050565b505050565b505050565b60006112bc8473ffffffffffffffffffffffffffffffffffffffff166115dd565b15611415578373ffffffffffffffffffffffffffffffffffffffff1663150b7a026112e5610b90565b8786866040518563ffffffff1660e01b815260040161130794939291906126a7565b6020604051808303816000875af192505050801561134357506040513d601f19601f820116820180604052508101906113409190612708565b60015b6113c5573d8060008114611373576040519150601f19603f3d011682016040523d82523d6000602084013e611378565b606091505b5060008151036113bd576040517f08c379a00000000000000000000000000000000000000000000000000000000081526004016113b4906125a0565b60405180910390fd5b805181602001fd5b63150b7a0260e01b7bffffffffffffffffffffffffffffffffffffffffffffffffffffffff1916817bffffffffffffffffffffffffffffffffffffffffffffffffffffffff19161491505061141a565b600190505b949350505050565b606060008203611469576040518060400160405280600181526020017f3000000000000000000000000000000000000000000000000000000000000000815250905061157d565b600082905060005b6000821461149b578080611484906122cc565b915050600a826114949190612764565b9150611471565b60008167ffffffffffffffff8111156114b7576114b6611c51565b5b6040519080825280601f01601f1916602001820160405280156114e95781602001600182028036833780820191505090505b5090505b60008514611576576001826115029190612438565b9150600a856115119190612795565b603061151d919061246c565b60f81b818381518110611533576115326127c6565b5b60200101907effffffffffffffffffffffffffffffffffffffffffffffffffffffffffffff1916908160001a905350600a8561156f9190612764565b94506114ed565b8093505050505b919050565b61158c8383611600565b611599600084848461129b565b6115d8576040517f08c379a00000000000000000000000000000000000000000000000000000000081526004016115cf906125a0565b60405180910390fd5b505050565b6000808273ffffffffffffffffffffffffffffffffffffffff163b119050919050565b600073ffffffffffffffffffffffffffffffffffffffff168273ffffffffffffffffffffffffffffffffffffffff160361166f576040517f08c379a000000000000000000000000000000000000000000000000000000000815260040161166690612841565b60405180910390fd5b61167881611225565b156116b8576040517f08c379a00000000000000000000000000000000000000000000000000000000081526004016116af906128ad565b60405180910390fd5b6116c460008383611291565b6001600360008473ffffffffffffffffffffffffffffffffffffffff1673ffffffffffffffffffffffffffffffffffffffff1681526020019081526020016000206000828254611714919061246c565b92505081905550816002600083815260200190815260200160002060006101000a81548173ffffffffffffffffffffffffffffffffffffffff021916908373ffffffffffffffffffffffffffffffffffffffff160217905550808273ffffffffffffffffffffffffffffffffffffffff16600073ffffffffffffffffffffffffffffffffffffffff167fddf252ad1be2c89b69c2b068fc378daa952ba7f163c4a11628f55a4df523b3ef60405160405180910390a46117d560008383611296565b5050565b8280546117e590611f58565b90600052602060002090601f016020900481019282611807576000855561184e565b82601f1061182057805160ff191683800117855561184e565b8280016001018555821561184e579182015b8281111561184d578251825591602001919060010190611832565b5b50905061185b919061185f565b5090565b5b80821115611878576000816000905550600101611860565b5090565b6000604051905090565b600080fd5b600080fd5b60007fffffffff0000000000000000000000000000000000000000000000000000000082169050919050565b6118c581611890565b81146118d057600080fd5b50565b6000813590506118e2816118bc565b92915050565b6000602082840312156118fe576118fd611886565b5b600061190c848285016118d3565b91505092915050565b60008115159050919050565b61192a81611915565b82525050565b60006020820190506119456000830184611921565b92915050565b600081519050919050565b600082825260208201905092915050565b60005b8381101561198557808201518184015260208101905061196a565b83811115611994576000848401525b50505050565b6000601f19601f8301169050919050565b60006119b68261194b565b6119c08185611956565b93506119d0818560208601611967565b6119d98161199a565b840191505092915050565b600060208201905081810360008301526119fe81846119ab565b905092915050565b6000819050919050565b611a1981611a06565b8114611a2457600080fd5b50565b600081359050611a3681611a10565b92915050565b600060208284031215611a5257611a51611886565b5b6000611a6084828501611a27565b91505092915050565b600073ffffffffffffffffffffffffffffffffffffffff82169050919050565b6000611a9482611a69565b9050919050565b611aa481611a89565b82525050565b6000602082019050611abf6000830184611a9b565b92915050565b611ace81611a89565b8114611ad957600080fd5b50565b600081359050611aeb81611ac5565b92915050565b60008060408385031215611b0857611b07611886565b5b6000611b1685828601611adc565b9250506020611b2785828601611a27565b9150509250929050565b611b3a81611a06565b82525050565b6000602082019050611b556000830184611b31565b92915050565b600080600060608486031215611b7457611b73611886565b5b6000611b8286828701611adc565b9350506020611b9386828701611adc565b9250506040611ba486828701611a27565b9150509250925092565b600060208284031215611bc457611bc3611886565b5b6000611bd284828501611adc565b91505092915050565b611be481611915565b8114611bef57600080fd5b50565b600081359050611c0181611bdb565b92915050565b60008060408385031215611c1e57611c1d611886565b5b6000611c2c85828601611adc565b9250506020611c3d85828601611bf2565b9150509250929050565b600080fd5b600080fd5b7f4e487b7100000000000000000000000000000000000000000000000000000000600052604160045260246000fd5b611c898261199a565b810181811067ffffffffffffffff82111715611ca857611ca7611c51565b5b80604052505050565b6000611cbb61187c565b9050611cc78282611c80565b919050565b600067ffffffffffffffff821115611ce757611ce6611c51565b5b611cf08261199a565b9050602081019050919050565b82818337600083830152505050565b6000611d1f611d1a84611ccc565b611cb1565b905082815260208101848484011115611d3b57611d3a611c4c565b5b611d46848285611cfd565b509392505050565b600082601f830112611d6357611d62611c47565b5b8135611d73848260208601611d0c565b91505092915050565b60008060008060808587031215611d9657611d95611886565b5b6000611da487828801611adc565b9450506020611db587828801611adc565b9350506040611dc687828801611a27565b925050606085013567ffffffffffffffff811115611de757611de661188b565b5b611df387828801611d4e565b91505092959194509250565b600067ffffffffffffffff821115611e1a57611e19611c51565b5b611e238261199a565b9050602081019050919050565b6000611e43611e3e84611dff565b611cb1565b905082815260208101848484011115611e5f57611e5e611c4c565b5b611e6a848285611cfd565b509392505050565b600082601f830112611e8757611e86611c47565b5b8135611e97848260208601611e30565b91505092915050565b600060208284031215611eb657611eb5611886565b5b600082013567ffffffffffffffff811115611ed457611ed361188b565b5b611ee084828501611e72565b91505092915050565b60008060408385031215611f0057611eff611886565b5b6000611f0e85828601611adc565b9250506020611f1f85828601611adc565b9150509250929050565b7f4e487b7100000000000000000000000000000000000000000000000000000000600052602260045260246000fd5b60006002820490506001821680611f7057607f821691505b602082108103611f8357611f82611f29565b5b50919050565b7f4552433732313a20617070726f76616c20746f2063757272656e74206f776e6560008201527f7200000000000000000000000000000000000000000000000000000000000000602082015250565b6000611fe5602183611956565b9150611ff082611f89565b604082019050919050565b6000602082019050818103600083015261201481611fd8565b9050919050565b7f4552433732313a20617070726f76652063616c6c6572206973206e6f7420746f60008201527f6b656e206f776e6572206e6f7220617070726f76656420666f7220616c6c0000602082015250565b6000612077603e83611956565b91506120828261201b565b604082019050919050565b600060208201905081810360008301526120a68161206a565b9050919050565b7f4552433732313a2063616c6c6572206973206e6f7420746f6b656e206f776e6560008201527f72206e6f7220617070726f766564000000000000000000000000000000000000602082015250565b6000612109602e83611956565b9150612114826120ad565b604082019050919050565b60006020820190508181036000830152612138816120fc565b9050919050565b7f4552433732313a20696e76616c696420746f6b656e2049440000000000000000600082015250565b6000612175601883611956565b91506121808261213f565b602082019050919050565b600060208201905081810360008301526121a481612168565b9050919050565b7f4552433732313a2061646472657373207a65726f206973206e6f74206120766160008201527f6c6964206f776e65720000000000000000000000000000000000000000000000602082015250565b6000612207602983611956565b9150612212826121ab565b604082019050919050565b60006020820190508181036000830152612236816121fa565b9050919050565b600081905092915050565b60006122538261194b565b61225d818561223d565b935061226d818560208601611967565b80840191505092915050565b60006122858285612248565b91506122918284612248565b91508190509392505050565b7f4e487b7100000000000000000000000000000000000000000000000000000000600052601160045260246000fd5b60006122d782611a06565b91507fffffffffffffffffffffffffffffffffffffffffffffffffffffffffffffffff82036123095761230861229d565b5b600182019050919050565b7f4552433732313a207472616e736665722066726f6d20696e636f72726563742060008201527f6f776e6572000000000000000000000000000000000000000000000000000000602082015250565b6000612370602583611956565b915061237b82612314565b604082019050919050565b6000602082019050818103600083015261239f81612363565b9050919050565b7f4552433732313a207472616e7366657220746f20746865207a65726f2061646460008201527f7265737300000000000000000000000000000000000000000000000000000000602082015250565b6000612402602483611956565b915061240d826123a6565b604082019050919050565b60006020820190508181036000830152612431816123f5565b9050919050565b600061244382611a06565b915061244e83611a06565b9250828210156124615761246061229d565b5b828203905092915050565b600061247782611a06565b915061248283611a06565b9250827fffffffffffffffffffffffffffffffffffffffffffffffffffffffffffffffff038211156124b7576124b661229d565b5b828201905092915050565b7f4552433732313a20617070726f766520746f2063616c6c657200000000000000600082015250565b60006124f8601983611956565b9150612503826124c2565b602082019050919050565b60006020820190508181036000830152612527816124eb565b9050919050565b7f4552433732313a207472616e7366657220746f206e6f6e20455243373231526560008201527f63656976657220696d706c656d656e7465720000000000000000000000000000602082015250565b600061258a603283611956565b91506125958261252e565b604082019050919050565b600060208201905081810360008301526125b98161257d565b9050919050565b7f45524337323155524953746f726167653a2055524920736574206f66206e6f6e60008201527f6578697374656e7420746f6b656e000000000000000000000000000000000000602082015250565b600061261c602e83611956565b9150612627826125c0565b604082019050919050565b6000602082019050818103600083015261264b8161260f565b9050919050565b600081519050919050565b600082825260208201905092915050565b600061267982612652565b612683818561265d565b9350612693818560208601611967565b61269c8161199a565b840191505092915050565b60006080820190506126bc6000830187611a9b565b6126c96020830186611a9b565b6126d66040830185611b31565b81810360608301526126e8818461266e565b905095945050505050565b600081519050612702816118bc565b92915050565b60006020828403121561271e5761271d611886565b5b600061272c848285016126f3565b91505092915050565b7f4e487b7100000000000000000000000000000000000000000000000000000000600052601260045260246000fd5b600061276f82611a06565b915061277a83611a06565b92508261278a57612789612735565b5b828204905092915050565b60006127a082611a06565b91506127ab83611a06565b9250826127bb576127ba612735565b5b828206905092915050565b7f4e487b7100000000000000000000000000000000000000000000000000000000600052603260045260246000fd5b7f4552433732313a206d696e7420746f20746865207a65726f2061646472657373600082015250565b600061282b602083611956565b9150612836826127f5565b602082019050919050565b6000602082019050818103600083015261285a8161281e565b9050919050565b7f4552433732313a20746f6b656e20616c7265616479206d696e74656400000000600082015250565b6000612897601c83611956565b91506128a282612861565b602082019050919050565b600060208201905081810360008301526128c68161288a565b905091905056fea2646970667358221220defaa561520f8c2e4cf1cead573578e27fbb5ea5b99d55f6eb849616cda72a3a64736f6c634300080e0033",
  "linkReferences": {},
  "deployedLinkReferences": {}
}