{
  "_format": "hh-sol-artifact-1",
  "contractName": "Marketplace",
  "sourceName": "contracts/Marketplace.sol",
  "abi": [
    {
      "inputs": [
        {
          "internalType": "uint256",
          "name": "_feePercent",
          "type": "uint256"
        }
      ],
      "stateMutability": "nonpayable",
      "type": "constructor"
    },
    {
      "anonymous": false,
      "inputs": [
        {
          "indexed": true,
          "internalType": "address",
          "name": "nft",
          "type": "address"
        },
        {
          "indexed": false,
          "internalType": "uint256",
          "name": "tokenId",
          "type": "uint256"
        },
        {
          "indexed": false,
          "internalType": "uint256",
          "name": "price",
          "type": "uint256"
        },
        {
          "indexed": true,
          "internalType": "address",
          "name": "seller",
          "type": "address"
        },
        {
          "indexed": true,
          "internalType": "address",
          "name": "buyer",
          "type": "address"
        }
      ],
      "name": "MarketItemBought",
      "type": "event"
    },
    {
      "anonymous": false,
      "inputs": [
        {
          "indexed": true,
          "internalType": "address",
          "name": "nft",
          "type": "address"
        },
        {
          "indexed": false,
          "internalType": "uint256",
          "name": "tokenId",
          "type": "uint256"
        },
        {
          "indexed": false,
          "internalType": "uint256",
          "name": "price",
          "type": "uint256"
        },
        {
          "indexed": true,
          "internalType": "address",
          "name": "seller",
          "type": "address"
        }
      ],
      "name": "MarketItemCreated",
      "type": "event"
    },
    {
      "inputs": [
        {
          "internalType": "contract IERC721",
          "name": "_nft",
          "type": "address"
        },
        {
          "internalType": "uint256",
          "name": "_price",
          "type": "uint256"
        }
      ],
      "name": "createMarketItem",
      "outputs": [],
      "stateMutability": "nonpayable",
      "type": "function"
    },
    {
      "inputs": [],
      "name": "feeAccount",
      "outputs": [
        {
          "internalType": "address payable",
          "name": "",
          "type": "address"
        }
      ],
      "stateMutability": "view",
      "type": "function"
    },
    {
      "inputs": [],
      "name": "feePercent",
      "outputs": [
        {
          "internalType": "uint256",
          "name": "",
          "type": "uint256"
        }
      ],
      "stateMutability": "view",
      "type": "function"
    },
    {
      "inputs": [],
      "name": "fetchMarketItems",
      "outputs": [
        {
          "components": [
            {
              "internalType": "contract IERC721",
              "name": "nft",
              "type": "address"
            },
            {
              "internalType": "uint256",
              "name": "tokenId",
              "type": "uint256"
            },
            {
              "internalType": "uint256",
              "name": "price",
              "type": "uint256"
            },
            {
              "internalType": "address payable",
              "name": "seller",
              "type": "address"
            }
          ],
          "internalType": "struct Marketplace.MarketItem[]",
          "name": "",
          "type": "tuple[]"
        }
      ],
      "stateMutability": "view",
      "type": "function"
    },
    {
      "inputs": [
        {
          "internalType": "address",
          "name": "_seller",
          "type": "address"
        }
      ],
      "name": "fetchSales",
      "outputs": [
        {
          "components": [
            {
              "internalType": "contract IERC721",
              "name": "nft",
              "type": "address"
            },
            {
              "internalType": "uint256",
              "name": "tokenId",
              "type": "uint256"
            },
            {
              "internalType": "uint256",
              "name": "price",
              "type": "uint256"
            },
            {
              "internalType": "address payable",
              "name": "seller",
              "type": "address"
            }
          ],
          "internalType": "struct Marketplace.MarketItem[]",
          "name": "",
          "type": "tuple[]"
        }
      ],
      "stateMutability": "view",
      "type": "function"
    },
    {
      "inputs": [
        {
          "internalType": "uint256",
          "name": "_itemId",
          "type": "uint256"
        }
      ],
      "name": "getTotalPrice",
      "outputs": [
        {
          "internalType": "uint256",
          "name": "",
          "type": "uint256"
        }
      ],
      "stateMutability": "view",
      "type": "function"
    },
    {
      "inputs": [
        {
          "internalType": "uint256",
          "name": "",
          "type": "uint256"
        }
      ],
      "name": "idToItem",
      "outputs": [
        {
          "internalType": "contract IERC721",
          "name": "nft",
          "type": "address"
        },
        {
          "internalType": "uint256",
          "name": "tokenId",
          "type": "uint256"
        },
        {
          "internalType": "uint256",
          "name": "price",
          "type": "uint256"
        },
        {
          "internalType": "address payable",
          "name": "seller",
          "type": "address"
        }
      ],
      "stateMutability": "view",
      "type": "function"
    },
    {
      "inputs": [
        {
          "internalType": "uint256",
          "name": "_itemId",
          "type": "uint256"
        }
      ],
      "name": "purchaseItem",
      "outputs": [],
      "stateMutability": "payable",
      "type": "function"
    }
  ],
  "bytecode": "0x60c06040523480156200001157600080fd5b506040516200182b3803806200182b8339818101604052810190620000379190620000c2565b60016000819055503373ffffffffffffffffffffffffffffffffffffffff1660808173ffffffffffffffffffffffffffffffffffffffff16815250508060a0818152505050620000f4565b600080fd5b6000819050919050565b6200009c8162000087565b8114620000a857600080fd5b50565b600081519050620000bc8162000091565b92915050565b600060208284031215620000db57620000da62000082565b5b6000620000eb84828501620000ab565b91505092915050565b60805160a05161170362000128600039600081816103c901526104610152600081816103a5015261064001526117036000f3fe60806040526004361061007b5760003560e01c8063ca7dd3751161004e578063ca7dd37514610141578063d38ea5bf1461017e578063dd5f85181461019a578063eb0b20ad146101c35761007b565b80630f08efe01461008057806365e17c9d146100ab5780637fd6f15c146100d6578063a36701a914610101575b600080fd5b34801561008c57600080fd5b50610095610200565b6040516100a29190610fe1565b60405180910390f35b3480156100b757600080fd5b506100c06103a3565b6040516100cd9190611012565b60405180910390f35b3480156100e257600080fd5b506100eb6103c7565b6040516100f8919061103c565b60405180910390f35b34801561010d57600080fd5b5061012860048036038101906101239190611088565b6103eb565b60405161013894939291906110c4565b60405180910390f35b34801561014d57600080fd5b5061016860048036038101906101639190611088565b61045b565b604051610175919061103c565b60405180910390f35b61019860048036038101906101939190611088565b6104be565b005b3480156101a657600080fd5b506101c160048036038101906101bc9190611159565b6108a5565b005b3480156101cf57600080fd5b506101ea60048036038101906101e591906111c5565b610b35565b6040516101f79190610fe1565b60405180910390f35b6060600061020e6001610d50565b905060008167ffffffffffffffff81111561022c5761022b6111f2565b5b60405190808252806020026020018201604052801561026557816020015b610252610dd0565b81526020019060019003908161024a5790505b50905060005b8281101561039a5760006001826102829190611250565b90506000600260008381526020019081526020016000209050806040518060800160405290816000820160009054906101000a900473ffffffffffffffffffffffffffffffffffffffff1673ffffffffffffffffffffffffffffffffffffffff1673ffffffffffffffffffffffffffffffffffffffff16815260200160018201548152602001600282015481526020016003820160009054906101000a900473ffffffffffffffffffffffffffffffffffffffff1673ffffffffffffffffffffffffffffffffffffffff1673ffffffffffffffffffffffffffffffffffffffff168152505084848151811061037a576103796112a6565b5b602002602001018190525050508080610392906112d5565b91505061026b565b50809250505090565b7f000000000000000000000000000000000000000000000000000000000000000081565b7f000000000000000000000000000000000000000000000000000000000000000081565b60026020528060005260406000206000915090508060000160009054906101000a900473ffffffffffffffffffffffffffffffffffffffff16908060010154908060020154908060030160009054906101000a900473ffffffffffffffffffffffffffffffffffffffff16905084565b600060647f0000000000000000000000000000000000000000000000000000000000000000606461048c9190611250565b60026000858152602001908152602001600020600201546104ad919061131d565b6104b791906113a6565b9050919050565b600260005403610503576040517f08c379a00000000000000000000000000000000000000000000000000000000081526004016104fa90611434565b60405180910390fd5b600260008190555060006105168261045b565b90508034101561055b576040517f08c379a0000000000000000000000000000000000000000000000000000000008152600401610552906114c6565b60405180910390fd5b6000600260008481526020019081526020016000209050600061057e6001610d50565b90506000841180156105905750808411155b6105cf576040517f08c379a00000000000000000000000000000000000000000000000000000000081526004016105c690611532565b60405180910390fd5b8160030160009054906101000a900473ffffffffffffffffffffffffffffffffffffffff1673ffffffffffffffffffffffffffffffffffffffff166108fc83600201549081150290604051600060405180830381858888f1935050505015801561063d573d6000803e3d6000fd5b507f000000000000000000000000000000000000000000000000000000000000000073ffffffffffffffffffffffffffffffffffffffff166108fc8360020154856106889190611552565b9081150290604051600060405180830381858888f193505050501580156106b3573d6000803e3d6000fd5b508160000160009054906101000a900473ffffffffffffffffffffffffffffffffffffffff1673ffffffffffffffffffffffffffffffffffffffff166323b872dd303385600101546040518463ffffffff1660e01b815260040161071993929190611595565b600060405180830381600087803b15801561073357600080fd5b505af1158015610747573d6000803e3d6000fd5b505050506107556001610d5e565b60026000858152602001908152602001600020600080820160006101000a81549073ffffffffffffffffffffffffffffffffffffffff0219169055600182016000905560028201600090556003820160006101000a81549073ffffffffffffffffffffffffffffffffffffffff021916905550503373ffffffffffffffffffffffffffffffffffffffff168260030160009054906101000a900473ffffffffffffffffffffffffffffffffffffffff1673ffffffffffffffffffffffffffffffffffffffff168360000160009054906101000a900473ffffffffffffffffffffffffffffffffffffffff1673ffffffffffffffffffffffffffffffffffffffff167f55476980d84110fd2c3b1a729e91f4388044d95a09b970d8f135a95b70d2abe98560010154866002015460405161088f9291906115cc565b60405180910390a4505050600160008190555050565b6002600054036108ea576040517f08c379a00000000000000000000000000000000000000000000000000000000081526004016108e190611434565b60405180910390fd5b600260008190555060008111610935576040517f08c379a000000000000000000000000000000000000000000000000000000000815260040161092c90611641565b60405180910390fd5b61093f6001610dba565b600061094b6001610d50565b90508273ffffffffffffffffffffffffffffffffffffffff166323b872dd3330846040518463ffffffff1660e01b815260040161098a93929190611595565b600060405180830381600087803b1580156109a457600080fd5b505af11580156109b8573d6000803e3d6000fd5b5050505060405180608001604052808473ffffffffffffffffffffffffffffffffffffffff1681526020018281526020018381526020013373ffffffffffffffffffffffffffffffffffffffff168152506002600083815260200190815260200160002060008201518160000160006101000a81548173ffffffffffffffffffffffffffffffffffffffff021916908373ffffffffffffffffffffffffffffffffffffffff160217905550602082015181600101556040820151816002015560608201518160030160006101000a81548173ffffffffffffffffffffffffffffffffffffffff021916908373ffffffffffffffffffffffffffffffffffffffff1602179055509050503373ffffffffffffffffffffffffffffffffffffffff168373ffffffffffffffffffffffffffffffffffffffff167f148a91938f78cb46ea9ec9888ed85268360527fc06761788b810f552644df7038385604051610b209291906115cc565b60405180910390a35060016000819055505050565b60606000610b436001610d50565b905060008167ffffffffffffffff811115610b6157610b606111f2565b5b604051908082528060200260200182016040528015610b9a57816020015b610b87610dd0565b815260200190600190039081610b7f5790505b50905060005b82811015610d45578473ffffffffffffffffffffffffffffffffffffffff1660026000600184610bd09190611250565b815260200190815260200160002060030160009054906101000a900473ffffffffffffffffffffffffffffffffffffffff1673ffffffffffffffffffffffffffffffffffffffff1603610d32576000600182610c2c9190611250565b90506000600260008381526020019081526020016000209050806040518060800160405290816000820160009054906101000a900473ffffffffffffffffffffffffffffffffffffffff1673ffffffffffffffffffffffffffffffffffffffff1673ffffffffffffffffffffffffffffffffffffffff16815260200160018201548152602001600282015481526020016003820160009054906101000a900473ffffffffffffffffffffffffffffffffffffffff1673ffffffffffffffffffffffffffffffffffffffff1673ffffffffffffffffffffffffffffffffffffffff1681525050848481518110610d2457610d236112a6565b5b602002602001018190525050505b8080610d3d906112d5565b915050610ba0565b508092505050919050565b600081600001549050919050565b60008160000154905060008111610daa576040517f08c379a0000000000000000000000000000000000000000000000000000000008152600401610da1906116ad565b60405180910390fd5b6001810382600001819055505050565b6001816000016000828254019250508190555050565b6040518060800160405280600073ffffffffffffffffffffffffffffffffffffffff1681526020016000815260200160008152602001600073ffffffffffffffffffffffffffffffffffffffff1681525090565b600081519050919050565b600082825260208201905092915050565b6000819050602082019050919050565b600073ffffffffffffffffffffffffffffffffffffffff82169050919050565b6000819050919050565b6000610e95610e90610e8b84610e50565b610e70565b610e50565b9050919050565b6000610ea782610e7a565b9050919050565b6000610eb982610e9c565b9050919050565b610ec981610eae565b82525050565b6000819050919050565b610ee281610ecf565b82525050565b6000610ef382610e50565b9050919050565b610f0381610ee8565b82525050565b608082016000820151610f1f6000850182610ec0565b506020820151610f326020850182610ed9565b506040820151610f456040850182610ed9565b506060820151610f586060850182610efa565b50505050565b6000610f6a8383610f09565b60808301905092915050565b6000602082019050919050565b6000610f8e82610e24565b610f988185610e2f565b9350610fa383610e40565b8060005b83811015610fd4578151610fbb8882610f5e565b9750610fc683610f76565b925050600181019050610fa7565b5085935050505092915050565b60006020820190508181036000830152610ffb8184610f83565b905092915050565b61100c81610ee8565b82525050565b60006020820190506110276000830184611003565b92915050565b61103681610ecf565b82525050565b6000602082019050611051600083018461102d565b92915050565b600080fd5b61106581610ecf565b811461107057600080fd5b50565b6000813590506110828161105c565b92915050565b60006020828403121561109e5761109d611057565b5b60006110ac84828501611073565b91505092915050565b6110be81610eae565b82525050565b60006080820190506110d960008301876110b5565b6110e6602083018661102d565b6110f3604083018561102d565b6111006060830184611003565b95945050505050565b600061111482610e50565b9050919050565b600061112682611109565b9050919050565b6111368161111b565b811461114157600080fd5b50565b6000813590506111538161112d565b92915050565b600080604083850312156111705761116f611057565b5b600061117e85828601611144565b925050602061118f85828601611073565b9150509250929050565b6111a281611109565b81146111ad57600080fd5b50565b6000813590506111bf81611199565b92915050565b6000602082840312156111db576111da611057565b5b60006111e9848285016111b0565b91505092915050565b7f4e487b7100000000000000000000000000000000000000000000000000000000600052604160045260246000fd5b7f4e487b7100000000000000000000000000000000000000000000000000000000600052601160045260246000fd5b600061125b82610ecf565b915061126683610ecf565b9250827fffffffffffffffffffffffffffffffffffffffffffffffffffffffffffffffff0382111561129b5761129a611221565b5b828201905092915050565b7f4e487b7100000000000000000000000000000000000000000000000000000000600052603260045260246000fd5b60006112e082610ecf565b91507fffffffffffffffffffffffffffffffffffffffffffffffffffffffffffffffff820361131257611311611221565b5b600182019050919050565b600061132882610ecf565b915061133383610ecf565b9250817fffffffffffffffffffffffffffffffffffffffffffffffffffffffffffffffff048311821515161561136c5761136b611221565b5b828202905092915050565b7f4e487b7100000000000000000000000000000000000000000000000000000000600052601260045260246000fd5b60006113b182610ecf565b91506113bc83610ecf565b9250826113cc576113cb611377565b5b828204905092915050565b600082825260208201905092915050565b7f5265656e7472616e637947756172643a207265656e7472616e742063616c6c00600082015250565b600061141e601f836113d7565b9150611429826113e8565b602082019050919050565b6000602082019050818103600083015261144d81611411565b9050919050565b7f6e6f7420656e6f75676820657468657220746f20636f766572206974656d207060008201527f7269636520616e64206d61726b65742066656500000000000000000000000000602082015250565b60006114b06033836113d7565b91506114bb82611454565b604082019050919050565b600060208201905081810360008301526114df816114a3565b9050919050565b7f6974656d20646f65736e27742065786973740000000000000000000000000000600082015250565b600061151c6012836113d7565b9150611527826114e6565b602082019050919050565b6000602082019050818103600083015261154b8161150f565b9050919050565b600061155d82610ecf565b915061156883610ecf565b92508282101561157b5761157a611221565b5b828203905092915050565b61158f81611109565b82525050565b60006060820190506115aa6000830186611586565b6115b76020830185611586565b6115c4604083018461102d565b949350505050565b60006040820190506115e1600083018561102d565b6115ee602083018461102d565b9392505050565b7f50726963652063616e2774206265203000000000000000000000000000000000600082015250565b600061162b6010836113d7565b9150611636826115f5565b602082019050919050565b6000602082019050818103600083015261165a8161161e565b9050919050565b7f436f756e7465723a2064656372656d656e74206f766572666c6f770000000000600082015250565b6000611697601b836113d7565b91506116a282611661565b602082019050919050565b600060208201905081810360008301526116c68161168a565b905091905056fea2646970667358221220e8d4555dba2d5d5191f43fd4487c4b93d1b0a3e3e65ff562f077627db1934a1864736f6c634300080e0033",
  "linkReferences": {},
  "deployedLinkReferences": {}
}