{
  "_format": "hh-sol-artifact-1",
  "contractName": "NFTFactory",
  "sourceName": "contracts/NFTFactory.sol",
  "abi": [
    {
      "anonymous": false,
      "inputs": [
        {
          "indexed": false,
          "internalType": "address",
          "name": "_collectionAddress",
          "type": "address"
        },
        {
          "indexed": false,
          "internalType": "address",
          "name": "_owner",
          "type": "address"
        }
      ],
      "name": "CollectionCreated",
      "type": "event"
    },
    {
      "anonymous": false,
      "inputs": [
        {
          "indexed": false,
          "internalType": "address",
          "name": "_collectionAddress",
          "type": "address"
        },
        {
          "indexed": false,
          "internalType": "uint256",
          "name": "_tokenId",
          "type": "uint256"
        }
      ],
      "name": "NFTMinted",
      "type": "event"
    },
    {
      "anonymous": false,
      "inputs": [
        {
          "indexed": true,
          "internalType": "address",
          "name": "previousOwner",
          "type": "address"
        },
        {
          "indexed": true,
          "internalType": "address",
          "name": "newOwner",
          "type": "address"
        }
      ],
      "name": "OwnershipTransferred",
      "type": "event"
    },
    {
      "inputs": [
        {
          "internalType": "address",
          "name": "",
          "type": "address"
        }
      ],
      "name": "collections",
      "outputs": [
        {
          "internalType": "contract CustomNFT",
          "name": "",
          "type": "address"
        }
      ],
      "stateMutability": "view",
      "type": "function"
    },
    {
      "inputs": [
        {
          "internalType": "string",
          "name": "_name",
          "type": "string"
        },
        {
          "internalType": "string",
          "name": "_symbol",
          "type": "string"
        },
        {
          "internalType": "string",
          "name": "_tokenUri",
          "type": "string"
        },
        {
          "internalType": "string",
          "name": "_image",
          "type": "string"
        },
        {
          "internalType": "uint256",
          "name": "_maxSupply",
          "type": "uint256"
        }
      ],
      "name": "createCollection",
      "outputs": [
        {
          "internalType": "address",
          "name": "",
          "type": "address"
        }
      ],
      "stateMutability": "nonpayable",
      "type": "function"
    },
    {
      "inputs": [
        {
          "internalType": "address",
          "name": "_collectionAddress",
          "type": "address"
        }
      ],
      "name": "getCollectionBaseUri",
      "outputs": [
        {
          "internalType": "string",
          "name": "",
          "type": "string"
        }
      ],
      "stateMutability": "view",
      "type": "function"
    },
    {
      "inputs": [
        {
          "internalType": "address",
          "name": "_collectionAddress",
          "type": "address"
        }
      ],
      "name": "getCollectionImage",
      "outputs": [
        {
          "internalType": "string",
          "name": "",
          "type": "string"
        }
      ],
      "stateMutability": "view",
      "type": "function"
    },
    {
      "inputs": [
        {
          "internalType": "address",
          "name": "_collectionAddress",
          "type": "address"
        }
      ],
      "name": "getCollectionMaxSupply",
      "outputs": [
        {
          "internalType": "uint256",
          "name": "",
          "type": "uint256"
        }
      ],
      "stateMutability": "view",
      "type": "function"
    },
    {
      "inputs": [
        {
          "internalType": "address",
          "name": "_collectionAddress",
          "type": "address"
        }
      ],
      "name": "getCollectionName",
      "outputs": [
        {
          "internalType": "string",
          "name": "",
          "type": "string"
        }
      ],
      "stateMutability": "view",
      "type": "function"
    },
    {
      "inputs": [
        {
          "internalType": "address",
          "name": "_collectionAddress",
          "type": "address"
        }
      ],
      "name": "getCollectionOwner",
      "outputs": [
        {
          "internalType": "address",
          "name": "",
          "type": "address"
        }
      ],
      "stateMutability": "view",
      "type": "function"
    },
    {
      "inputs": [
        {
          "internalType": "address",
          "name": "_collectionAddress",
          "type": "address"
        }
      ],
      "name": "getCollectionSymbol",
      "outputs": [
        {
          "internalType": "string",
          "name": "",
          "type": "string"
        }
      ],
      "stateMutability": "view",
      "type": "function"
    },
    {
      "inputs": [
        {
          "internalType": "address",
          "name": "_ownerAddress",
          "type": "address"
        }
      ],
      "name": "getCollectionsOfOwner",
      "outputs": [
        {
          "internalType": "address[]",
          "name": "",
          "type": "address[]"
        }
      ],
      "stateMutability": "view",
      "type": "function"
    },
    {
      "inputs": [
        {
          "internalType": "address",
          "name": "_collectionAddress",
          "type": "address"
        },
        {
          "internalType": "uint256",
          "name": "_tokenId",
          "type": "uint256"
        }
      ],
      "name": "getTokenUri",
      "outputs": [
        {
          "internalType": "string",
          "name": "",
          "type": "string"
        }
      ],
      "stateMutability": "view",
      "type": "function"
    },
    {
      "inputs": [
        {
          "internalType": "address",
          "name": "_collectionAddress",
          "type": "address"
        }
      ],
      "name": "mintFromCollection",
      "outputs": [
        {
          "internalType": "uint256",
          "name": "",
          "type": "uint256"
        }
      ],
      "stateMutability": "payable",
      "type": "function"
    },
    {
      "inputs": [],
      "name": "owner",
      "outputs": [
        {
          "internalType": "address",
          "name": "",
          "type": "address"
        }
      ],
      "stateMutability": "view",
      "type": "function"
    },
    {
      "inputs": [
        {
          "internalType": "address",
          "name": "",
          "type": "address"
        },
        {
          "internalType": "uint256",
          "name": "",
          "type": "uint256"
        }
      ],
      "name": "ownerToCollections",
      "outputs": [
        {
          "internalType": "address",
          "name": "",
          "type": "address"
        }
      ],
      "stateMutability": "view",
      "type": "function"
    },
    {
      "inputs": [],
      "name": "renounceOwnership",
      "outputs": [],
      "stateMutability": "nonpayable",
      "type": "function"
    },
    {
      "inputs": [
        {
          "internalType": "address",
          "name": "newOwner",
          "type": "address"
        }
      ],
      "name": "transferOwnership",
      "outputs": [],
      "stateMutability": "nonpayable",
      "type": "function"
    }
  ],
  "bytecode": "0x608060405234801561001057600080fd5b50600160008190555061003561002a61003a60201b60201c565b61004260201b60201c565b610108565b600033905090565b6000600160009054906101000a900473ffffffffffffffffffffffffffffffffffffffff16905081600160006101000a81548173ffffffffffffffffffffffffffffffffffffffff021916908373ffffffffffffffffffffffffffffffffffffffff1602179055508173ffffffffffffffffffffffffffffffffffffffff168173ffffffffffffffffffffffffffffffffffffffff167f8be0079c531659141344cd1fd0a4f28419497f9722a3daafe3b4186f6b6457e060405160405180910390a35050565b614e4580620001186000396000f3fe608060405260043610620000fe5760003560e01c8063715018a61162000097578063ab226c6a1162000061578063ab226c6a14620003a3578063e687f44c14620003e7578063f2fde38b146200042b578063fab95f36146200045957620000fe565b8063715018a614620002d1578063745b69ca14620002eb57806380f03b68146200032f5780638da5cb5b146200037357620000fe565b806343add2e611620000d957806343add2e614620001c157806348d79ed414620002055780635c66d3471462000249578063657b7e2a146200028d57620000fe565b80633388919914620001035780633ef2845f14620001475780634267c3c5146200018b575b600080fd5b3480156200011057600080fd5b506200012f6004803603810190620001299190620011ee565b6200049d565b6040516200013e9190620012c4565b60405180910390f35b3480156200015457600080fd5b506200017360048036038101906200016d9190620011ee565b6200057c565b604051620001829190620012c4565b60405180910390f35b620001a96004803603810190620001a39190620011ee565b6200065b565b604051620001b8919062001303565b60405180910390f35b348015620001ce57600080fd5b50620001ed6004803603810190620001e79190620011ee565b620007da565b604051620001fc91906200138b565b60405180910390f35b3480156200021257600080fd5b506200023160048036038101906200022b9190620013d9565b6200080d565b60405162000240919062001431565b60405180910390f35b3480156200025657600080fd5b506200027560048036038101906200026f9190620011ee565b6200085c565b604051620002849190620012c4565b60405180910390f35b3480156200029a57600080fd5b50620002b96004803603810190620002b39190620011ee565b6200093b565b604051620002c8919062001303565b60405180910390f35b348015620002de57600080fd5b50620002e962000a15565b005b348015620002f857600080fd5b50620003176004803603810190620003119190620011ee565b62000a2d565b60405162000326919062001431565b60405180910390f35b3480156200033c57600080fd5b506200035b6004803603810190620003559190620011ee565b62000b07565b6040516200036a9190620012c4565b60405180910390f35b3480156200038057600080fd5b506200038b62000be6565b6040516200039a919062001431565b60405180910390f35b348015620003b057600080fd5b50620003cf6004803603810190620003c99190620011ee565b62000c10565b604051620003de91906200151c565b60405180910390f35b348015620003f457600080fd5b506200041360048036038101906200040d9190620015ae565b62000cdf565b60405162000422919062001431565b60405180910390f35b3480156200043857600080fd5b50620004576004803603810190620004519190620011ee565b62000e9d565b005b3480156200046657600080fd5b506200048560048036038101906200047f9190620013d9565b62000f27565b604051620004949190620012c4565b60405180910390f35b6060600260008373ffffffffffffffffffffffffffffffffffffffff1673ffffffffffffffffffffffffffffffffffffffff16815260200190815260200160002060009054906101000a900473ffffffffffffffffffffffffffffffffffffffff1673ffffffffffffffffffffffffffffffffffffffff166395d89b416040518163ffffffff1660e01b8152600401600060405180830381865afa1580156200054a573d6000803e3d6000fd5b505050506040513d6000823e3d601f19601f8201168201806040525081019062000575919062001800565b9050919050565b6060600260008373ffffffffffffffffffffffffffffffffffffffff1673ffffffffffffffffffffffffffffffffffffffff16815260200190815260200160002060009054906101000a900473ffffffffffffffffffffffffffffffffffffffff1673ffffffffffffffffffffffffffffffffffffffff1663e05d34b36040518163ffffffff1660e01b8152600401600060405180830381865afa15801562000629573d6000803e3d6000fd5b505050506040513d6000823e3d601f19601f8201168201806040525081019062000654919062001800565b9050919050565b60006200066762001014565b600260005403620006af576040517f08c379a0000000000000000000000000000000000000000000000000000000008152600401620006a690620018a1565b60405180910390fd5b60026000819055506000600260008473ffffffffffffffffffffffffffffffffffffffff1673ffffffffffffffffffffffffffffffffffffffff16815260200190815260200160002060009054906101000a900473ffffffffffffffffffffffffffffffffffffffff1673ffffffffffffffffffffffffffffffffffffffff16631249c58b6040518163ffffffff1660e01b81526004016020604051808303816000875af115801562000766573d6000803e3d6000fd5b505050506040513d601f19601f820116820180604052508101906200078c9190620018da565b90507f4cc0a9c4a99ddc700de1af2c9f916a7cbfdb71f14801ccff94061ad1ef8a80408382604051620007c19291906200190c565b60405180910390a1809150506001600081905550919050565b60026020528060005260406000206000915054906101000a900473ffffffffffffffffffffffffffffffffffffffff1681565b600360205281600052604060002081815481106200082a57600080fd5b906000526020600020016000915091509054906101000a900473ffffffffffffffffffffffffffffffffffffffff1681565b6060600260008373ffffffffffffffffffffffffffffffffffffffff1673ffffffffffffffffffffffffffffffffffffffff16815260200190815260200160002060009054906101000a900473ffffffffffffffffffffffffffffffffffffffff1673ffffffffffffffffffffffffffffffffffffffff1663d547cfb76040518163ffffffff1660e01b8152600401600060405180830381865afa15801562000909573d6000803e3d6000fd5b505050506040513d6000823e3d601f19601f8201168201806040525081019062000934919062001800565b9050919050565b6000600260008373ffffffffffffffffffffffffffffffffffffffff1673ffffffffffffffffffffffffffffffffffffffff16815260200190815260200160002060009054906101000a900473ffffffffffffffffffffffffffffffffffffffff1673ffffffffffffffffffffffffffffffffffffffff1663d5abeb016040518163ffffffff1660e01b8152600401602060405180830381865afa158015620009e8573d6000803e3d6000fd5b505050506040513d601f19601f8201168201806040525081019062000a0e9190620018da565b9050919050565b62000a1f62001014565b62000a2b600062001099565b565b6000600260008373ffffffffffffffffffffffffffffffffffffffff1673ffffffffffffffffffffffffffffffffffffffff16815260200190815260200160002060009054906101000a900473ffffffffffffffffffffffffffffffffffffffff1673ffffffffffffffffffffffffffffffffffffffff16638da5cb5b6040518163ffffffff1660e01b8152600401602060405180830381865afa15801562000ada573d6000803e3d6000fd5b505050506040513d601f19601f8201168201806040525081019062000b00919062001950565b9050919050565b6060600260008373ffffffffffffffffffffffffffffffffffffffff1673ffffffffffffffffffffffffffffffffffffffff16815260200190815260200160002060009054906101000a900473ffffffffffffffffffffffffffffffffffffffff1673ffffffffffffffffffffffffffffffffffffffff166306fdde036040518163ffffffff1660e01b8152600401600060405180830381865afa15801562000bb4573d6000803e3d6000fd5b505050506040513d6000823e3d601f19601f8201168201806040525081019062000bdf919062001800565b9050919050565b6000600160009054906101000a900473ffffffffffffffffffffffffffffffffffffffff16905090565b6060600360008373ffffffffffffffffffffffffffffffffffffffff1673ffffffffffffffffffffffffffffffffffffffff16815260200190815260200160002080548060200260200160405190810160405280929190818152602001828054801562000cd357602002820191906000526020600020905b8160009054906101000a900473ffffffffffffffffffffffffffffffffffffffff1673ffffffffffffffffffffffffffffffffffffffff168152602001906001019080831162000c88575b50505050509050919050565b6000808a8a8a8a8a8a8a8a8a60405162000cf99062001167565b62000d0d99989796959493929190620019c4565b604051809103906000f08015801562000d2a573d6000803e3d6000fd5b509050600081905081600260008373ffffffffffffffffffffffffffffffffffffffff1673ffffffffffffffffffffffffffffffffffffffff16815260200190815260200160002060006101000a81548173ffffffffffffffffffffffffffffffffffffffff021916908373ffffffffffffffffffffffffffffffffffffffff160217905550600360003373ffffffffffffffffffffffffffffffffffffffff1673ffffffffffffffffffffffffffffffffffffffff168152602001908152602001600020819080600181540180825580915050600190039060005260206000200160009091909190916101000a81548173ffffffffffffffffffffffffffffffffffffffff021916908373ffffffffffffffffffffffffffffffffffffffff1602179055507f5d0de243db1669e3a7056744cd715c625f0c1c348736c2c2d53d0ddebff1a6c7813360405162000e8392919062001a45565b60405180910390a180925050509998505050505050505050565b62000ea762001014565b600073ffffffffffffffffffffffffffffffffffffffff168173ffffffffffffffffffffffffffffffffffffffff160362000f19576040517f08c379a000000000000000000000000000000000000000000000000000000000815260040162000f109062001ae8565b60405180910390fd5b62000f248162001099565b50565b6060600260008473ffffffffffffffffffffffffffffffffffffffff1673ffffffffffffffffffffffffffffffffffffffff16815260200190815260200160002060009054906101000a900473ffffffffffffffffffffffffffffffffffffffff1673ffffffffffffffffffffffffffffffffffffffff1663c87b56dd836040518263ffffffff1660e01b815260040162000fc3919062001303565b600060405180830381865afa15801562000fe1573d6000803e3d6000fd5b505050506040513d6000823e3d601f19601f820116820180604052508101906200100c919062001800565b905092915050565b6200101e6200115f565b73ffffffffffffffffffffffffffffffffffffffff166200103e62000be6565b73ffffffffffffffffffffffffffffffffffffffff161462001097576040517f08c379a00000000000000000000000000000000000000000000000000000000081526004016200108e9062001b5a565b60405180910390fd5b565b6000600160009054906101000a900473ffffffffffffffffffffffffffffffffffffffff16905081600160006101000a81548173ffffffffffffffffffffffffffffffffffffffff021916908373ffffffffffffffffffffffffffffffffffffffff1602179055508173ffffffffffffffffffffffffffffffffffffffff168173ffffffffffffffffffffffffffffffffffffffff167f8be0079c531659141344cd1fd0a4f28419497f9722a3daafe3b4186f6b6457e060405160405180910390a35050565b600033905090565b6132938062001b7d83390190565b6000604051905090565b600080fd5b600080fd5b600073ffffffffffffffffffffffffffffffffffffffff82169050919050565b6000620011b68262001189565b9050919050565b620011c881620011a9565b8114620011d457600080fd5b50565b600081359050620011e881620011bd565b92915050565b6000602082840312156200120757620012066200117f565b5b60006200121784828501620011d7565b91505092915050565b600081519050919050565b600082825260208201905092915050565b60005b838110156200125c5780820151818401526020810190506200123f565b838111156200126c576000848401525b50505050565b6000601f19601f8301169050919050565b6000620012908262001220565b6200129c81856200122b565b9350620012ae8185602086016200123c565b620012b98162001272565b840191505092915050565b60006020820190508181036000830152620012e0818462001283565b905092915050565b6000819050919050565b620012fd81620012e8565b82525050565b60006020820190506200131a6000830184620012f2565b92915050565b6000819050919050565b60006200134b620013456200133f8462001189565b62001320565b62001189565b9050919050565b60006200135f826200132a565b9050919050565b6000620013738262001352565b9050919050565b620013858162001366565b82525050565b6000602082019050620013a260008301846200137a565b92915050565b620013b381620012e8565b8114620013bf57600080fd5b50565b600081359050620013d381620013a8565b92915050565b60008060408385031215620013f357620013f26200117f565b5b60006200140385828601620011d7565b92505060206200141685828601620013c2565b9150509250929050565b6200142b81620011a9565b82525050565b600060208201905062001448600083018462001420565b92915050565b600081519050919050565b600082825260208201905092915050565b6000819050602082019050919050565b6200148581620011a9565b82525050565b60006200149983836200147a565b60208301905092915050565b6000602082019050919050565b6000620014bf826200144e565b620014cb818562001459565b9350620014d8836200146a565b8060005b838110156200150f578151620014f388826200148b565b97506200150083620014a5565b925050600181019050620014dc565b5085935050505092915050565b60006020820190508181036000830152620015388184620014b2565b905092915050565b600080fd5b600080fd5b600080fd5b60008083601f84011262001568576200156762001540565b5b8235905067ffffffffffffffff81111562001588576200158762001545565b5b602083019150836001820283011115620015a757620015a66200154a565b5b9250929050565b600080600080600080600080600060a08a8c031215620015d357620015d26200117f565b5b60008a013567ffffffffffffffff811115620015f457620015f362001184565b5b620016028c828d016200154f565b995099505060208a013567ffffffffffffffff81111562001628576200162762001184565b5b620016368c828d016200154f565b975097505060408a013567ffffffffffffffff8111156200165c576200165b62001184565b5b6200166a8c828d016200154f565b955095505060608a013567ffffffffffffffff81111562001690576200168f62001184565b5b6200169e8c828d016200154f565b93509350506080620016b38c828d01620013c2565b9150509295985092959850929598565b600080fd5b7f4e487b7100000000000000000000000000000000000000000000000000000000600052604160045260246000fd5b620017028262001272565b810181811067ffffffffffffffff82111715620017245762001723620016c8565b5b80604052505050565b60006200173962001175565b9050620017478282620016f7565b919050565b600067ffffffffffffffff8211156200176a5762001769620016c8565b5b620017758262001272565b9050602081019050919050565b60006200179962001793846200174c565b6200172d565b905082815260208101848484011115620017b857620017b7620016c3565b5b620017c58482856200123c565b509392505050565b600082601f830112620017e557620017e462001540565b5b8151620017f784826020860162001782565b91505092915050565b6000602082840312156200181957620018186200117f565b5b600082015167ffffffffffffffff8111156200183a576200183962001184565b5b6200184884828501620017cd565b91505092915050565b7f5265656e7472616e637947756172643a207265656e7472616e742063616c6c00600082015250565b600062001889601f836200122b565b9150620018968262001851565b602082019050919050565b60006020820190508181036000830152620018bc816200187a565b9050919050565b600081519050620018d481620013a8565b92915050565b600060208284031215620018f357620018f26200117f565b5b60006200190384828501620018c3565b91505092915050565b600060408201905062001923600083018562001420565b620019326020830184620012f2565b9392505050565b6000815190506200194a81620011bd565b92915050565b6000602082840312156200196957620019686200117f565b5b6000620019798482850162001939565b91505092915050565b82818337600083830152505050565b60006200199f83856200122b565b9350620019ae83858462001982565b620019b98362001272565b840190509392505050565b600060a0820190508181036000830152620019e1818b8d62001991565b90508181036020830152620019f881898b62001991565b9050818103604083015262001a0f81878962001991565b9050818103606083015262001a2681858762001991565b905062001a376080830184620012f2565b9a9950505050505050505050565b600060408201905062001a5c600083018562001420565b62001a6b602083018462001420565b9392505050565b7f4f776e61626c653a206e6577206f776e657220697320746865207a65726f206160008201527f6464726573730000000000000000000000000000000000000000000000000000602082015250565b600062001ad06026836200122b565b915062001add8262001a72565b604082019050919050565b6000602082019050818103600083015262001b038162001ac1565b9050919050565b7f4f776e61626c653a2063616c6c6572206973206e6f7420746865206f776e6572600082015250565b600062001b426020836200122b565b915062001b4f8262001b0a565b602082019050919050565b6000602082019050818103600083015262001b758162001b33565b905091905056fe60806040523480156200001157600080fd5b506040516200329338038062003293833981810160405281019062000037919062000427565b84848160009080519060200190620000519291906200019f565b5080600190805190602001906200006a9291906200019f565b5050506200008d62000081620000d160201b60201c565b620000d960201b60201c565b80600b8190555081600a9080519060200190620000ac9291906200019f565b508260099080519060200190620000c59291906200019f565b5050505050506200058f565b600033905090565b6000600760009054906101000a900473ffffffffffffffffffffffffffffffffffffffff16905081600760006101000a81548173ffffffffffffffffffffffffffffffffffffffff021916908373ffffffffffffffffffffffffffffffffffffffff1602179055508173ffffffffffffffffffffffffffffffffffffffff168173ffffffffffffffffffffffffffffffffffffffff167f8be0079c531659141344cd1fd0a4f28419497f9722a3daafe3b4186f6b6457e060405160405180910390a35050565b828054620001ad906200055a565b90600052602060002090601f016020900481019282620001d157600085556200021d565b82601f10620001ec57805160ff19168380011785556200021d565b828001600101855582156200021d579182015b828111156200021c578251825591602001919060010190620001ff565b5b5090506200022c919062000230565b5090565b5b808211156200024b57600081600090555060010162000231565b5090565b6000604051905090565b600080fd5b600080fd5b600080fd5b600080fd5b6000601f19601f8301169050919050565b7f4e487b7100000000000000000000000000000000000000000000000000000000600052604160045260246000fd5b620002b8826200026d565b810181811067ffffffffffffffff82111715620002da57620002d96200027e565b5b80604052505050565b6000620002ef6200024f565b9050620002fd8282620002ad565b919050565b600067ffffffffffffffff82111562000320576200031f6200027e565b5b6200032b826200026d565b9050602081019050919050565b60005b83811015620003585780820151818401526020810190506200033b565b8381111562000368576000848401525b50505050565b6000620003856200037f8462000302565b620002e3565b905082815260208101848484011115620003a457620003a362000268565b5b620003b184828562000338565b509392505050565b600082601f830112620003d157620003d062000263565b5b8151620003e38482602086016200036e565b91505092915050565b6000819050919050565b6200040181620003ec565b81146200040d57600080fd5b50565b6000815190506200042181620003f6565b92915050565b600080600080600060a0868803121562000446576200044562000259565b5b600086015167ffffffffffffffff8111156200046757620004666200025e565b5b6200047588828901620003b9565b955050602086015167ffffffffffffffff8111156200049957620004986200025e565b5b620004a788828901620003b9565b945050604086015167ffffffffffffffff811115620004cb57620004ca6200025e565b5b620004d988828901620003b9565b935050606086015167ffffffffffffffff811115620004fd57620004fc6200025e565b5b6200050b88828901620003b9565b92505060806200051e8882890162000410565b9150509295509295909350565b7f4e487b7100000000000000000000000000000000000000000000000000000000600052602260045260246000fd5b600060028204905060018216806200057357607f821691505b6020821081036200058957620005886200052b565b5b50919050565b612cf4806200059f6000396000f3fe60806040526004361061011f5760003560e01c80638da5cb5b116100a0578063d547cfb711610064578063d547cfb7146103d8578063d5abeb0114610403578063e05d34b31461042e578063e985e9c514610459578063f2fde38b146104965761011f565b80638da5cb5b146102f357806395d89b411461031e578063a22cb46514610349578063b88d4fde14610372578063c87b56dd1461039b5761011f565b806323b872dd116100e757806323b872dd1461021057806342842e0e146102395780636352211e1461026257806370a082311461029f578063715018a6146102dc5761011f565b806301ffc9a71461012457806306fdde0314610161578063081812fc1461018c578063095ea7b3146101c95780631249c58b146101f2575b600080fd5b34801561013057600080fd5b5061014b60048036038101906101469190611ceb565b6104bf565b6040516101589190611d33565b60405180910390f35b34801561016d57600080fd5b506101766105a1565b6040516101839190611de7565b60405180910390f35b34801561019857600080fd5b506101b360048036038101906101ae9190611e3f565b610633565b6040516101c09190611ead565b60405180910390f35b3480156101d557600080fd5b506101f060048036038101906101eb9190611ef4565b610679565b005b6101fa610790565b6040516102079190611f43565b60405180910390f35b34801561021c57600080fd5b5061023760048036038101906102329190611f5e565b610810565b005b34801561024557600080fd5b50610260600480360381019061025b9190611f5e565b610870565b005b34801561026e57600080fd5b5061028960048036038101906102849190611e3f565b610890565b6040516102969190611ead565b60405180910390f35b3480156102ab57600080fd5b506102c660048036038101906102c19190611fb1565b610941565b6040516102d39190611f43565b60405180910390f35b3480156102e857600080fd5b506102f16109f8565b005b3480156102ff57600080fd5b50610308610a0c565b6040516103159190611ead565b60405180910390f35b34801561032a57600080fd5b50610333610a36565b6040516103409190611de7565b60405180910390f35b34801561035557600080fd5b50610370600480360381019061036b919061200a565b610ac8565b005b34801561037e57600080fd5b506103996004803603810190610394919061217f565b610ade565b005b3480156103a757600080fd5b506103c260048036038101906103bd9190611e3f565b610b40565b6040516103cf9190611de7565b60405180910390f35b3480156103e457600080fd5b506103ed610c52565b6040516103fa9190611de7565b60405180910390f35b34801561040f57600080fd5b50610418610ce0565b6040516104259190611f43565b60405180910390f35b34801561043a57600080fd5b50610443610ce6565b6040516104509190611de7565b60405180910390f35b34801561046557600080fd5b50610480600480360381019061047b9190612202565b610d74565b60405161048d9190611d33565b60405180910390f35b3480156104a257600080fd5b506104bd60048036038101906104b89190611fb1565b610e08565b005b60007f80ac58cd000000000000000000000000000000000000000000000000000000007bffffffffffffffffffffffffffffffffffffffffffffffffffffffff1916827bffffffffffffffffffffffffffffffffffffffffffffffffffffffff1916148061058a57507f5b5e139f000000000000000000000000000000000000000000000000000000007bffffffffffffffffffffffffffffffffffffffffffffffffffffffff1916827bffffffffffffffffffffffffffffffffffffffffffffffffffffffff1916145b8061059a575061059982610e8b565b5b9050919050565b6060600080546105b090612271565b80601f01602080910402602001604051908101604052809291908181526020018280546105dc90612271565b80156106295780601f106105fe57610100808354040283529160200191610629565b820191906000526020600020905b81548152906001019060200180831161060c57829003601f168201915b5050505050905090565b600061063e82610ef5565b6004600083815260200190815260200160002060009054906101000a900473ffffffffffffffffffffffffffffffffffffffff169050919050565b600061068482610890565b90508073ffffffffffffffffffffffffffffffffffffffff168373ffffffffffffffffffffffffffffffffffffffff16036106f4576040517f08c379a00000000000000000000000000000000000000000000000000000000081526004016106eb90612314565b60405180910390fd5b8073ffffffffffffffffffffffffffffffffffffffff16610713610f40565b73ffffffffffffffffffffffffffffffffffffffff16148061074257506107418161073c610f40565b610d74565b5b610781576040517f08c379a0000000000000000000000000000000000000000000000000000000008152600401610778906123a6565b60405180910390fd5b61078b8383610f48565b505050565b600061079a611001565b600b546107a7600861107f565b106107e7576040517f08c379a00000000000000000000000000000000000000000000000000000000081526004016107de90612412565b60405180910390fd5b60006107f3600861107f565b90506107ff600861108d565b61080933826110a3565b8091505090565b61082161081b610f40565b8261127c565b610860576040517f08c379a0000000000000000000000000000000000000000000000000000000008152600401610857906124a4565b60405180910390fd5b61086b838383611311565b505050565b61088b83838360405180602001604052806000815250610ade565b505050565b6000806002600084815260200190815260200160002060009054906101000a900473ffffffffffffffffffffffffffffffffffffffff169050600073ffffffffffffffffffffffffffffffffffffffff168173ffffffffffffffffffffffffffffffffffffffff1603610938576040517f08c379a000000000000000000000000000000000000000000000000000000000815260040161092f90612510565b60405180910390fd5b80915050919050565b60008073ffffffffffffffffffffffffffffffffffffffff168273ffffffffffffffffffffffffffffffffffffffff16036109b1576040517f08c379a00000000000000000000000000000000000000000000000000000000081526004016109a8906125a2565b60405180910390fd5b600360008373ffffffffffffffffffffffffffffffffffffffff1673ffffffffffffffffffffffffffffffffffffffff168152602001908152602001600020549050919050565b610a00611001565b610a0a6000611577565b565b6000600760009054906101000a900473ffffffffffffffffffffffffffffffffffffffff16905090565b606060018054610a4590612271565b80601f0160208091040260200160405190810160405280929190818152602001828054610a7190612271565b8015610abe5780601f10610a9357610100808354040283529160200191610abe565b820191906000526020600020905b815481529060010190602001808311610aa157829003601f168201915b5050505050905090565b610ada610ad3610f40565b838361163d565b5050565b610aef610ae9610f40565b8361127c565b610b2e576040517f08c379a0000000000000000000000000000000000000000000000000000000008152600401610b25906124a4565b60405180910390fd5b610b3a848484846117a9565b50505050565b6060610b4b82610ef5565b6000600660008481526020019081526020016000208054610b6b90612271565b80601f0160208091040260200160405190810160405280929190818152602001828054610b9790612271565b8015610be45780601f10610bb957610100808354040283529160200191610be4565b820191906000526020600020905b815481529060010190602001808311610bc757829003601f168201915b505050505090506000610bf5611805565b90506000815103610c0a578192505050610c4d565b600082511115610c3f578082604051602001610c279291906125fe565b60405160208183030381529060405292505050610c4d565b610c4884611897565b925050505b919050565b60098054610c5f90612271565b80601f0160208091040260200160405190810160405280929190818152602001828054610c8b90612271565b8015610cd85780601f10610cad57610100808354040283529160200191610cd8565b820191906000526020600020905b815481529060010190602001808311610cbb57829003601f168201915b505050505081565b600b5481565b600a8054610cf390612271565b80601f0160208091040260200160405190810160405280929190818152602001828054610d1f90612271565b8015610d6c5780601f10610d4157610100808354040283529160200191610d6c565b820191906000526020600020905b815481529060010190602001808311610d4f57829003601f168201915b505050505081565b6000600560008473ffffffffffffffffffffffffffffffffffffffff1673ffffffffffffffffffffffffffffffffffffffff16815260200190815260200160002060008373ffffffffffffffffffffffffffffffffffffffff1673ffffffffffffffffffffffffffffffffffffffff16815260200190815260200160002060009054906101000a900460ff16905092915050565b610e10611001565b600073ffffffffffffffffffffffffffffffffffffffff168173ffffffffffffffffffffffffffffffffffffffff1603610e7f576040517f08c379a0000000000000000000000000000000000000000000000000000000008152600401610e7690612694565b60405180910390fd5b610e8881611577565b50565b60007f01ffc9a7000000000000000000000000000000000000000000000000000000007bffffffffffffffffffffffffffffffffffffffffffffffffffffffff1916827bffffffffffffffffffffffffffffffffffffffffffffffffffffffff1916149050919050565b610efe816118ff565b610f3d576040517f08c379a0000000000000000000000000000000000000000000000000000000008152600401610f3490612510565b60405180910390fd5b50565b600033905090565b816004600083815260200190815260200160002060006101000a81548173ffffffffffffffffffffffffffffffffffffffff021916908373ffffffffffffffffffffffffffffffffffffffff160217905550808273ffffffffffffffffffffffffffffffffffffffff16610fbb83610890565b73ffffffffffffffffffffffffffffffffffffffff167f8c5be1e5ebec7d5bd14f71427d1e84f3dd0314c0f7b2291e5b200ac8c7c3b92560405160405180910390a45050565b611009610f40565b73ffffffffffffffffffffffffffffffffffffffff16611027610a0c565b73ffffffffffffffffffffffffffffffffffffffff161461107d576040517f08c379a000000000000000000000000000000000000000000000000000000000815260040161107490612700565b60405180910390fd5b565b600081600001549050919050565b6001816000016000828254019250508190555050565b600073ffffffffffffffffffffffffffffffffffffffff168273ffffffffffffffffffffffffffffffffffffffff1603611112576040517f08c379a00000000000000000000000000000000000000000000000000000000081526004016111099061276c565b60405180910390fd5b61111b816118ff565b1561115b576040517f08c379a0000000000000000000000000000000000000000000000000000000008152600401611152906127d8565b60405180910390fd5b6111676000838361196b565b6001600360008473ffffffffffffffffffffffffffffffffffffffff1673ffffffffffffffffffffffffffffffffffffffff16815260200190815260200160002060008282546111b79190612827565b92505081905550816002600083815260200190815260200160002060006101000a81548173ffffffffffffffffffffffffffffffffffffffff021916908373ffffffffffffffffffffffffffffffffffffffff160217905550808273ffffffffffffffffffffffffffffffffffffffff16600073ffffffffffffffffffffffffffffffffffffffff167fddf252ad1be2c89b69c2b068fc378daa952ba7f163c4a11628f55a4df523b3ef60405160405180910390a461127860008383611970565b5050565b60008061128883610890565b90508073ffffffffffffffffffffffffffffffffffffffff168473ffffffffffffffffffffffffffffffffffffffff1614806112ca57506112c98185610d74565b5b8061130857508373ffffffffffffffffffffffffffffffffffffffff166112f084610633565b73ffffffffffffffffffffffffffffffffffffffff16145b91505092915050565b8273ffffffffffffffffffffffffffffffffffffffff1661133182610890565b73ffffffffffffffffffffffffffffffffffffffff1614611387576040517f08c379a000000000000000000000000000000000000000000000000000000000815260040161137e906128ef565b60405180910390fd5b600073ffffffffffffffffffffffffffffffffffffffff168273ffffffffffffffffffffffffffffffffffffffff16036113f6576040517f08c379a00000000000000000000000000000000000000000000000000000000081526004016113ed90612981565b60405180910390fd5b61140183838361196b565b61140c600082610f48565b6001600360008573ffffffffffffffffffffffffffffffffffffffff1673ffffffffffffffffffffffffffffffffffffffff168152602001908152602001600020600082825461145c91906129a1565b925050819055506001600360008473ffffffffffffffffffffffffffffffffffffffff1673ffffffffffffffffffffffffffffffffffffffff16815260200190815260200160002060008282546114b39190612827565b92505081905550816002600083815260200190815260200160002060006101000a81548173ffffffffffffffffffffffffffffffffffffffff021916908373ffffffffffffffffffffffffffffffffffffffff160217905550808273ffffffffffffffffffffffffffffffffffffffff168473ffffffffffffffffffffffffffffffffffffffff167fddf252ad1be2c89b69c2b068fc378daa952ba7f163c4a11628f55a4df523b3ef60405160405180910390a4611572838383611970565b505050565b6000600760009054906101000a900473ffffffffffffffffffffffffffffffffffffffff16905081600760006101000a81548173ffffffffffffffffffffffffffffffffffffffff021916908373ffffffffffffffffffffffffffffffffffffffff1602179055508173ffffffffffffffffffffffffffffffffffffffff168173ffffffffffffffffffffffffffffffffffffffff167f8be0079c531659141344cd1fd0a4f28419497f9722a3daafe3b4186f6b6457e060405160405180910390a35050565b8173ffffffffffffffffffffffffffffffffffffffff168373ffffffffffffffffffffffffffffffffffffffff16036116ab576040517f08c379a00000000000000000000000000000000000000000000000000000000081526004016116a290612a21565b60405180910390fd5b80600560008573ffffffffffffffffffffffffffffffffffffffff1673ffffffffffffffffffffffffffffffffffffffff16815260200190815260200160002060008473ffffffffffffffffffffffffffffffffffffffff1673ffffffffffffffffffffffffffffffffffffffff16815260200190815260200160002060006101000a81548160ff0219169083151502179055508173ffffffffffffffffffffffffffffffffffffffff168373ffffffffffffffffffffffffffffffffffffffff167f17307eab39ab6107e8899845ad3d59bd9653f200f220920489ca2b5937696c318360405161179c9190611d33565b60405180910390a3505050565b6117b4848484611311565b6117c084848484611975565b6117ff576040517f08c379a00000000000000000000000000000000000000000000000000000000081526004016117f690612ab3565b60405180910390fd5b50505050565b60606009805461181490612271565b80601f016020809104026020016040519081016040528092919081815260200182805461184090612271565b801561188d5780601f106118625761010080835404028352916020019161188d565b820191906000526020600020905b81548152906001019060200180831161187057829003601f168201915b5050505050905090565b60606118a282610ef5565b60006118ac611805565b905060008151116118cc57604051806020016040528060008152506118f7565b806118d684611afc565b6040516020016118e79291906125fe565b6040516020818303038152906040525b915050919050565b60008073ffffffffffffffffffffffffffffffffffffffff166002600084815260200190815260200160002060009054906101000a900473ffffffffffffffffffffffffffffffffffffffff1673ffffffffffffffffffffffffffffffffffffffff1614159050919050565b505050565b505050565b60006119968473ffffffffffffffffffffffffffffffffffffffff16611c5c565b15611aef578373ffffffffffffffffffffffffffffffffffffffff1663150b7a026119bf610f40565b8786866040518563ffffffff1660e01b81526004016119e19493929190612b28565b6020604051808303816000875af1925050508015611a1d57506040513d601f19601f82011682018060405250810190611a1a9190612b89565b60015b611a9f573d8060008114611a4d576040519150601f19603f3d011682016040523d82523d6000602084013e611a52565b606091505b506000815103611a97576040517f08c379a0000000000000000000000000000000000000000000000000000000008152600401611a8e90612ab3565b60405180910390fd5b805181602001fd5b63150b7a0260e01b7bffffffffffffffffffffffffffffffffffffffffffffffffffffffff1916817bffffffffffffffffffffffffffffffffffffffffffffffffffffffff191614915050611af4565b600190505b949350505050565b606060008203611b43576040518060400160405280600181526020017f30000000000000000000000000000000000000000000000000000000000000008152509050611c57565b600082905060005b60008214611b75578080611b5e90612bb6565b915050600a82611b6e9190612c2d565b9150611b4b565b60008167ffffffffffffffff811115611b9157611b90612054565b5b6040519080825280601f01601f191660200182016040528015611bc35781602001600182028036833780820191505090505b5090505b60008514611c5057600182611bdc91906129a1565b9150600a85611beb9190612c5e565b6030611bf79190612827565b60f81b818381518110611c0d57611c0c612c8f565b5b60200101907effffffffffffffffffffffffffffffffffffffffffffffffffffffffffffff1916908160001a905350600a85611c499190612c2d565b9450611bc7565b8093505050505b919050565b6000808273ffffffffffffffffffffffffffffffffffffffff163b119050919050565b6000604051905090565b600080fd5b600080fd5b60007fffffffff0000000000000000000000000000000000000000000000000000000082169050919050565b611cc881611c93565b8114611cd357600080fd5b50565b600081359050611ce581611cbf565b92915050565b600060208284031215611d0157611d00611c89565b5b6000611d0f84828501611cd6565b91505092915050565b60008115159050919050565b611d2d81611d18565b82525050565b6000602082019050611d486000830184611d24565b92915050565b600081519050919050565b600082825260208201905092915050565b60005b83811015611d88578082015181840152602081019050611d6d565b83811115611d97576000848401525b50505050565b6000601f19601f8301169050919050565b6000611db982611d4e565b611dc38185611d59565b9350611dd3818560208601611d6a565b611ddc81611d9d565b840191505092915050565b60006020820190508181036000830152611e018184611dae565b905092915050565b6000819050919050565b611e1c81611e09565b8114611e2757600080fd5b50565b600081359050611e3981611e13565b92915050565b600060208284031215611e5557611e54611c89565b5b6000611e6384828501611e2a565b91505092915050565b600073ffffffffffffffffffffffffffffffffffffffff82169050919050565b6000611e9782611e6c565b9050919050565b611ea781611e8c565b82525050565b6000602082019050611ec26000830184611e9e565b92915050565b611ed181611e8c565b8114611edc57600080fd5b50565b600081359050611eee81611ec8565b92915050565b60008060408385031215611f0b57611f0a611c89565b5b6000611f1985828601611edf565b9250506020611f2a85828601611e2a565b9150509250929050565b611f3d81611e09565b82525050565b6000602082019050611f586000830184611f34565b92915050565b600080600060608486031215611f7757611f76611c89565b5b6000611f8586828701611edf565b9350506020611f9686828701611edf565b9250506040611fa786828701611e2a565b9150509250925092565b600060208284031215611fc757611fc6611c89565b5b6000611fd584828501611edf565b91505092915050565b611fe781611d18565b8114611ff257600080fd5b50565b60008135905061200481611fde565b92915050565b6000806040838503121561202157612020611c89565b5b600061202f85828601611edf565b925050602061204085828601611ff5565b9150509250929050565b600080fd5b600080fd5b7f4e487b7100000000000000000000000000000000000000000000000000000000600052604160045260246000fd5b61208c82611d9d565b810181811067ffffffffffffffff821117156120ab576120aa612054565b5b80604052505050565b60006120be611c7f565b90506120ca8282612083565b919050565b600067ffffffffffffffff8211156120ea576120e9612054565b5b6120f382611d9d565b9050602081019050919050565b82818337600083830152505050565b600061212261211d846120cf565b6120b4565b90508281526020810184848401111561213e5761213d61204f565b5b612149848285612100565b509392505050565b600082601f8301126121665761216561204a565b5b813561217684826020860161210f565b91505092915050565b6000806000806080858703121561219957612198611c89565b5b60006121a787828801611edf565b94505060206121b887828801611edf565b93505060406121c987828801611e2a565b925050606085013567ffffffffffffffff8111156121ea576121e9611c8e565b5b6121f687828801612151565b91505092959194509250565b6000806040838503121561221957612218611c89565b5b600061222785828601611edf565b925050602061223885828601611edf565b9150509250929050565b7f4e487b7100000000000000000000000000000000000000000000000000000000600052602260045260246000fd5b6000600282049050600182168061228957607f821691505b60208210810361229c5761229b612242565b5b50919050565b7f4552433732313a20617070726f76616c20746f2063757272656e74206f776e6560008201527f7200000000000000000000000000000000000000000000000000000000000000602082015250565b60006122fe602183611d59565b9150612309826122a2565b604082019050919050565b6000602082019050818103600083015261232d816122f1565b9050919050565b7f4552433732313a20617070726f76652063616c6c6572206973206e6f7420746f60008201527f6b656e206f776e6572206e6f7220617070726f76656420666f7220616c6c0000602082015250565b6000612390603e83611d59565b915061239b82612334565b604082019050919050565b600060208201905081810360008301526123bf81612383565b9050919050565b7f4d617820737570706c7920616c726561647920726561636865642e0000000000600082015250565b60006123fc601b83611d59565b9150612407826123c6565b602082019050919050565b6000602082019050818103600083015261242b816123ef565b9050919050565b7f4552433732313a2063616c6c6572206973206e6f7420746f6b656e206f776e6560008201527f72206e6f7220617070726f766564000000000000000000000000000000000000602082015250565b600061248e602e83611d59565b915061249982612432565b604082019050919050565b600060208201905081810360008301526124bd81612481565b9050919050565b7f4552433732313a20696e76616c696420746f6b656e2049440000000000000000600082015250565b60006124fa601883611d59565b9150612505826124c4565b602082019050919050565b60006020820190508181036000830152612529816124ed565b9050919050565b7f4552433732313a2061646472657373207a65726f206973206e6f74206120766160008201527f6c6964206f776e65720000000000000000000000000000000000000000000000602082015250565b600061258c602983611d59565b915061259782612530565b604082019050919050565b600060208201905081810360008301526125bb8161257f565b9050919050565b600081905092915050565b60006125d882611d4e565b6125e281856125c2565b93506125f2818560208601611d6a565b80840191505092915050565b600061260a82856125cd565b915061261682846125cd565b91508190509392505050565b7f4f776e61626c653a206e6577206f776e657220697320746865207a65726f206160008201527f6464726573730000000000000000000000000000000000000000000000000000602082015250565b600061267e602683611d59565b915061268982612622565b604082019050919050565b600060208201905081810360008301526126ad81612671565b9050919050565b7f4f776e61626c653a2063616c6c6572206973206e6f7420746865206f776e6572600082015250565b60006126ea602083611d59565b91506126f5826126b4565b602082019050919050565b60006020820190508181036000830152612719816126dd565b9050919050565b7f4552433732313a206d696e7420746f20746865207a65726f2061646472657373600082015250565b6000612756602083611d59565b915061276182612720565b602082019050919050565b6000602082019050818103600083015261278581612749565b9050919050565b7f4552433732313a20746f6b656e20616c7265616479206d696e74656400000000600082015250565b60006127c2601c83611d59565b91506127cd8261278c565b602082019050919050565b600060208201905081810360008301526127f1816127b5565b9050919050565b7f4e487b7100000000000000000000000000000000000000000000000000000000600052601160045260246000fd5b600061283282611e09565b915061283d83611e09565b9250827fffffffffffffffffffffffffffffffffffffffffffffffffffffffffffffffff03821115612872576128716127f8565b5b828201905092915050565b7f4552433732313a207472616e736665722066726f6d20696e636f72726563742060008201527f6f776e6572000000000000000000000000000000000000000000000000000000602082015250565b60006128d9602583611d59565b91506128e48261287d565b604082019050919050565b60006020820190508181036000830152612908816128cc565b9050919050565b7f4552433732313a207472616e7366657220746f20746865207a65726f2061646460008201527f7265737300000000000000000000000000000000000000000000000000000000602082015250565b600061296b602483611d59565b91506129768261290f565b604082019050919050565b6000602082019050818103600083015261299a8161295e565b9050919050565b60006129ac82611e09565b91506129b783611e09565b9250828210156129ca576129c96127f8565b5b828203905092915050565b7f4552433732313a20617070726f766520746f2063616c6c657200000000000000600082015250565b6000612a0b601983611d59565b9150612a16826129d5565b602082019050919050565b60006020820190508181036000830152612a3a816129fe565b9050919050565b7f4552433732313a207472616e7366657220746f206e6f6e20455243373231526560008201527f63656976657220696d706c656d656e7465720000000000000000000000000000602082015250565b6000612a9d603283611d59565b9150612aa882612a41565b604082019050919050565b60006020820190508181036000830152612acc81612a90565b9050919050565b600081519050919050565b600082825260208201905092915050565b6000612afa82612ad3565b612b048185612ade565b9350612b14818560208601611d6a565b612b1d81611d9d565b840191505092915050565b6000608082019050612b3d6000830187611e9e565b612b4a6020830186611e9e565b612b576040830185611f34565b8181036060830152612b698184612aef565b905095945050505050565b600081519050612b8381611cbf565b92915050565b600060208284031215612b9f57612b9e611c89565b5b6000612bad84828501612b74565b91505092915050565b6000612bc182611e09565b91507fffffffffffffffffffffffffffffffffffffffffffffffffffffffffffffffff8203612bf357612bf26127f8565b5b600182019050919050565b7f4e487b7100000000000000000000000000000000000000000000000000000000600052601260045260246000fd5b6000612c3882611e09565b9150612c4383611e09565b925082612c5357612c52612bfe565b5b828204905092915050565b6000612c6982611e09565b9150612c7483611e09565b925082612c8457612c83612bfe565b5b828206905092915050565b7f4e487b7100000000000000000000000000000000000000000000000000000000600052603260045260246000fdfea26469706673582212201ff7c9c9c80228df858257fd1b54a2768132caac7a11c8cc6cded471f5e207ff64736f6c634300080e0033a264697066735822122085c9e13dc06c20f61243888d3c895e7fa5c44768b700885618a6c3ce55fc328b64736f6c634300080e0033",
  "linkReferences": {},
  "deployedLinkReferences": {}
}