{
  "_format": "hh-sol-artifact-1",
  "contractName": "NFTFactory",
  "sourceName": "contracts/NFTFactory.sol",
  "abi": [
    {
      "anonymous": false,
      "inputs": [
        {
          "indexed": false,
          "internalType": "address",
          "name": "_collectionAddress",
          "type": "address"
        },
        {
          "indexed": false,
          "internalType": "address",
          "name": "_owner",
          "type": "address"
        }
      ],
      "name": "CollectionCreated",
      "type": "event"
    },
    {
      "anonymous": false,
      "inputs": [
        {
          "indexed": false,
          "internalType": "address",
          "name": "_collectionAddress",
          "type": "address"
        },
        {
          "indexed": false,
          "internalType": "uint256",
          "name": "_tokenId",
          "type": "uint256"
        }
      ],
      "name": "NFTMinted",
      "type": "event"
    },
    {
      "inputs": [
        {
          "internalType": "address",
          "name": "",
          "type": "address"
        }
      ],
      "name": "collections",
      "outputs": [
        {
          "internalType": "contract BlyToken",
          "name": "",
          "type": "address"
        }
      ],
      "stateMutability": "view",
      "type": "function"
    },
    {
      "inputs": [
        {
          "internalType": "string",
          "name": "_name",
          "type": "string"
        },
        {
          "internalType": "string",
          "name": "_symbol",
          "type": "string"
        },
        {
          "internalType": "string",
          "name": "_tokenUri",
          "type": "string"
        },
        {
          "internalType": "string",
          "name": "_image",
          "type": "string"
        },
        {
          "internalType": "uint256",
          "name": "_maxSupply",
          "type": "uint256"
        },
        {
          "internalType": "uint256",
          "name": "_mintFee",
          "type": "uint256"
        }
      ],
      "name": "createCollection",
      "outputs": [
        {
          "internalType": "address",
          "name": "",
          "type": "address"
        }
      ],
      "stateMutability": "nonpayable",
      "type": "function"
    },
    {
      "inputs": [
        {
          "internalType": "address",
          "name": "_collectionAddress",
          "type": "address"
        }
      ],
      "name": "getCollectionBaseUri",
      "outputs": [
        {
          "internalType": "string",
          "name": "",
          "type": "string"
        }
      ],
      "stateMutability": "view",
      "type": "function"
    },
    {
      "inputs": [
        {
          "internalType": "address",
          "name": "_collectionAddress",
          "type": "address"
        }
      ],
      "name": "getCollectionImage",
      "outputs": [
        {
          "internalType": "string",
          "name": "",
          "type": "string"
        }
      ],
      "stateMutability": "view",
      "type": "function"
    },
    {
      "inputs": [
        {
          "internalType": "address",
          "name": "_collectionAddress",
          "type": "address"
        }
      ],
      "name": "getCollectionMaxSupply",
      "outputs": [
        {
          "internalType": "uint256",
          "name": "",
          "type": "uint256"
        }
      ],
      "stateMutability": "view",
      "type": "function"
    },
    {
      "inputs": [
        {
          "internalType": "address",
          "name": "_collectionAddress",
          "type": "address"
        }
      ],
      "name": "getCollectionMintFee",
      "outputs": [
        {
          "internalType": "uint256",
          "name": "",
          "type": "uint256"
        }
      ],
      "stateMutability": "view",
      "type": "function"
    },
    {
      "inputs": [
        {
          "internalType": "address",
          "name": "_collectionAddress",
          "type": "address"
        }
      ],
      "name": "getCollectionName",
      "outputs": [
        {
          "internalType": "string",
          "name": "",
          "type": "string"
        }
      ],
      "stateMutability": "view",
      "type": "function"
    },
    {
      "inputs": [
        {
          "internalType": "address",
          "name": "_collectionAddress",
          "type": "address"
        }
      ],
      "name": "getCollectionOwner",
      "outputs": [
        {
          "internalType": "address",
          "name": "",
          "type": "address"
        }
      ],
      "stateMutability": "view",
      "type": "function"
    },
    {
      "inputs": [
        {
          "internalType": "address",
          "name": "_collectionAddress",
          "type": "address"
        }
      ],
      "name": "getCollectionSymbol",
      "outputs": [
        {
          "internalType": "string",
          "name": "",
          "type": "string"
        }
      ],
      "stateMutability": "view",
      "type": "function"
    },
    {
      "inputs": [
        {
          "internalType": "address",
          "name": "_collectionAddress",
          "type": "address"
        },
        {
          "internalType": "uint256",
          "name": "_tokenId",
          "type": "uint256"
        }
      ],
      "name": "getTokenUri",
      "outputs": [
        {
          "internalType": "string",
          "name": "",
          "type": "string"
        }
      ],
      "stateMutability": "view",
      "type": "function"
    },
    {
      "inputs": [
        {
          "internalType": "address",
          "name": "_collectionAddress",
          "type": "address"
        }
      ],
      "name": "mintFromCollection",
      "outputs": [
        {
          "internalType": "uint256",
          "name": "",
          "type": "uint256"
        }
      ],
      "stateMutability": "payable",
      "type": "function"
    },
    {
      "inputs": [
        {
          "internalType": "address",
          "name": "",
          "type": "address"
        }
      ],
      "name": "owners",
      "outputs": [
        {
          "internalType": "address",
          "name": "",
          "type": "address"
        }
      ],
      "stateMutability": "view",
      "type": "function"
    }
  ],
  "bytecode": "0x608060405234801561001057600080fd5b506001600081905550614a61806100286000396000f3fe608060405260043610620000b65760003560e01c8063657b7e2a116200006d578063657b7e2a14620002455780636c5abca51462000289578063745b69ca14620002cd57806380f03b681462000311578063d6099a661462000355578063fab95f36146200039957620000b6565b8063022914a714620000bb5780633388919914620000ff5780633ef2845f14620001435780634267c3c5146200018757806343add2e614620001bd5780635c66d3471462000201575b600080fd5b348015620000c857600080fd5b50620000e76004803603810190620000e1919062000f67565b620003dd565b604051620000f6919062000faa565b60405180910390f35b3480156200010c57600080fd5b506200012b600480360381019062000125919062000f67565b62000410565b6040516200013a91906200106b565b60405180910390f35b3480156200015057600080fd5b506200016f600480360381019062000169919062000f67565b620004ef565b6040516200017e91906200106b565b60405180910390f35b620001a560048036038101906200019f919062000f67565b620005ce565b604051620001b49190620010aa565b60405180910390f35b348015620001ca57600080fd5b50620001e96004803603810190620001e3919062000f67565b62000846565b604051620001f8919062001132565b60405180910390f35b3480156200020e57600080fd5b506200022d600480360381019062000227919062000f67565b62000879565b6040516200023c91906200106b565b60405180910390f35b3480156200025257600080fd5b506200027160048036038101906200026b919062000f67565b62000958565b604051620002809190620010aa565b60405180910390f35b3480156200029657600080fd5b50620002b56004803603810190620002af9190620011ee565b62000a32565b604051620002c4919062000faa565b60405180910390f35b348015620002da57600080fd5b50620002f96004803603810190620002f3919062000f67565b62000bd1565b60405162000308919062000faa565b60405180910390f35b3480156200031e57600080fd5b506200033d600480360381019062000337919062000f67565b62000c3a565b6040516200034c91906200106b565b60405180910390f35b3480156200036257600080fd5b506200038160048036038101906200037b919062000f67565b62000d19565b604051620003909190620010aa565b60405180910390f35b348015620003a657600080fd5b50620003c56004803603810190620003bf919062001319565b62000df3565b604051620003d491906200106b565b60405180910390f35b60026020528060005260406000206000915054906101000a900473ffffffffffffffffffffffffffffffffffffffff1681565b6060600160008373ffffffffffffffffffffffffffffffffffffffff1673ffffffffffffffffffffffffffffffffffffffff16815260200190815260200160002060009054906101000a900473ffffffffffffffffffffffffffffffffffffffff1673ffffffffffffffffffffffffffffffffffffffff166395d89b416040518163ffffffff1660e01b8152600401600060405180830381865afa158015620004bd573d6000803e3d6000fd5b505050506040513d6000823e3d601f19601f82011682018060405250810190620004e891906200149d565b9050919050565b6060600160008373ffffffffffffffffffffffffffffffffffffffff1673ffffffffffffffffffffffffffffffffffffffff16815260200190815260200160002060009054906101000a900473ffffffffffffffffffffffffffffffffffffffff1673ffffffffffffffffffffffffffffffffffffffff1663e05d34b36040518163ffffffff1660e01b8152600401600060405180830381865afa1580156200059c573d6000803e3d6000fd5b505050506040513d6000823e3d601f19601f82011682018060405250810190620005c791906200149d565b9050919050565b600060026000540362000618576040517f08c379a00000000000000000000000000000000000000000000000000000000081526004016200060f906200153e565b60405180910390fd5b600260008190555060006200062d8362000d19565b90508034101562000675576040517f08c379a00000000000000000000000000000000000000000000000000000000081526004016200066c90620015b0565b60405180910390fd5b6000600260008573ffffffffffffffffffffffffffffffffffffffff1673ffffffffffffffffffffffffffffffffffffffff16815260200190815260200160002060009054906101000a900473ffffffffffffffffffffffffffffffffffffffff1690508073ffffffffffffffffffffffffffffffffffffffff166108fc349081150290604051600060405180830381858888f1935050505015801562000720573d6000803e3d6000fd5b506000600160008673ffffffffffffffffffffffffffffffffffffffff1673ffffffffffffffffffffffffffffffffffffffff16815260200190815260200160002060009054906101000a900473ffffffffffffffffffffffffffffffffffffffff1673ffffffffffffffffffffffffffffffffffffffff16631249c58b6040518163ffffffff1660e01b81526004016020604051808303816000875af1158015620007d0573d6000803e3d6000fd5b505050506040513d601f19601f82011682018060405250810190620007f69190620015e9565b90507f4cc0a9c4a99ddc700de1af2c9f916a7cbfdb71f14801ccff94061ad1ef8a804085826040516200082b9291906200161b565b60405180910390a18093505050506001600081905550919050565b60016020528060005260406000206000915054906101000a900473ffffffffffffffffffffffffffffffffffffffff1681565b6060600160008373ffffffffffffffffffffffffffffffffffffffff1673ffffffffffffffffffffffffffffffffffffffff16815260200190815260200160002060009054906101000a900473ffffffffffffffffffffffffffffffffffffffff1673ffffffffffffffffffffffffffffffffffffffff1663d547cfb76040518163ffffffff1660e01b8152600401600060405180830381865afa15801562000926573d6000803e3d6000fd5b505050506040513d6000823e3d601f19601f820116820180604052508101906200095191906200149d565b9050919050565b6000600160008373ffffffffffffffffffffffffffffffffffffffff1673ffffffffffffffffffffffffffffffffffffffff16815260200190815260200160002060009054906101000a900473ffffffffffffffffffffffffffffffffffffffff1673ffffffffffffffffffffffffffffffffffffffff1663d5abeb016040518163ffffffff1660e01b8152600401602060405180830381865afa15801562000a05573d6000803e3d6000fd5b505050506040513d601f19601f8201168201806040525081019062000a2b9190620015e9565b9050919050565b6000808b8b8b8b8b8b8b8b8b8b60405162000a4d9062000ee0565b62000a629a999897969594939291906200168a565b604051809103906000f08015801562000a7f573d6000803e3d6000fd5b509050600081905081600160008373ffffffffffffffffffffffffffffffffffffffff1673ffffffffffffffffffffffffffffffffffffffff16815260200190815260200160002060006101000a81548173ffffffffffffffffffffffffffffffffffffffff021916908373ffffffffffffffffffffffffffffffffffffffff16021790555033600260008373ffffffffffffffffffffffffffffffffffffffff1673ffffffffffffffffffffffffffffffffffffffff16815260200190815260200160002060006101000a81548173ffffffffffffffffffffffffffffffffffffffff021916908373ffffffffffffffffffffffffffffffffffffffff1602179055507f5d0de243db1669e3a7056744cd715c625f0c1c348736c2c2d53d0ddebff1a6c7813360405162000bb69291906200171b565b60405180910390a180925050509a9950505050505050505050565b6000600260008373ffffffffffffffffffffffffffffffffffffffff1673ffffffffffffffffffffffffffffffffffffffff16815260200190815260200160002060009054906101000a900473ffffffffffffffffffffffffffffffffffffffff169050919050565b6060600160008373ffffffffffffffffffffffffffffffffffffffff1673ffffffffffffffffffffffffffffffffffffffff16815260200190815260200160002060009054906101000a900473ffffffffffffffffffffffffffffffffffffffff1673ffffffffffffffffffffffffffffffffffffffff166306fdde036040518163ffffffff1660e01b8152600401600060405180830381865afa15801562000ce7573d6000803e3d6000fd5b505050506040513d6000823e3d601f19601f8201168201806040525081019062000d1291906200149d565b9050919050565b6000600160008373ffffffffffffffffffffffffffffffffffffffff1673ffffffffffffffffffffffffffffffffffffffff16815260200190815260200160002060009054906101000a900473ffffffffffffffffffffffffffffffffffffffff1673ffffffffffffffffffffffffffffffffffffffff166313966db56040518163ffffffff1660e01b8152600401602060405180830381865afa15801562000dc6573d6000803e3d6000fd5b505050506040513d601f19601f8201168201806040525081019062000dec9190620015e9565b9050919050565b6060600160008473ffffffffffffffffffffffffffffffffffffffff1673ffffffffffffffffffffffffffffffffffffffff16815260200190815260200160002060009054906101000a900473ffffffffffffffffffffffffffffffffffffffff1673ffffffffffffffffffffffffffffffffffffffff1663c87b56dd836040518263ffffffff1660e01b815260040162000e8f9190620010aa565b600060405180830381865afa15801562000ead573d6000803e3d6000fd5b505050506040513d6000823e3d601f19601f8201168201806040525081019062000ed891906200149d565b905092915050565b6132e3806200174983390190565b6000604051905090565b600080fd5b600080fd5b600073ffffffffffffffffffffffffffffffffffffffff82169050919050565b600062000f2f8262000f02565b9050919050565b62000f418162000f22565b811462000f4d57600080fd5b50565b60008135905062000f618162000f36565b92915050565b60006020828403121562000f805762000f7f62000ef8565b5b600062000f908482850162000f50565b91505092915050565b62000fa48162000f22565b82525050565b600060208201905062000fc1600083018462000f99565b92915050565b600081519050919050565b600082825260208201905092915050565b60005b838110156200100357808201518184015260208101905062000fe6565b8381111562001013576000848401525b50505050565b6000601f19601f8301169050919050565b6000620010378262000fc7565b62001043818562000fd2565b93506200105581856020860162000fe3565b620010608162001019565b840191505092915050565b600060208201905081810360008301526200108781846200102a565b905092915050565b6000819050919050565b620010a4816200108f565b82525050565b6000602082019050620010c1600083018462001099565b92915050565b6000819050919050565b6000620010f2620010ec620010e68462000f02565b620010c7565b62000f02565b9050919050565b60006200110682620010d1565b9050919050565b60006200111a82620010f9565b9050919050565b6200112c816200110d565b82525050565b600060208201905062001149600083018462001121565b92915050565b600080fd5b600080fd5b600080fd5b60008083601f8401126200117757620011766200114f565b5b8235905067ffffffffffffffff81111562001197576200119662001154565b5b602083019150836001820283011115620011b657620011b562001159565b5b9250929050565b620011c8816200108f565b8114620011d457600080fd5b50565b600081359050620011e881620011bd565b92915050565b60008060008060008060008060008060c08b8d03121562001214576200121362000ef8565b5b60008b013567ffffffffffffffff81111562001235576200123462000efd565b5b620012438d828e016200115e565b9a509a505060208b013567ffffffffffffffff81111562001269576200126862000efd565b5b620012778d828e016200115e565b985098505060408b013567ffffffffffffffff8111156200129d576200129c62000efd565b5b620012ab8d828e016200115e565b965096505060608b013567ffffffffffffffff811115620012d157620012d062000efd565b5b620012df8d828e016200115e565b94509450506080620012f48d828e01620011d7565b92505060a0620013078d828e01620011d7565b9150509295989b9194979a5092959850565b6000806040838503121562001333576200133262000ef8565b5b6000620013438582860162000f50565b92505060206200135685828601620011d7565b9150509250929050565b600080fd5b7f4e487b7100000000000000000000000000000000000000000000000000000000600052604160045260246000fd5b6200139f8262001019565b810181811067ffffffffffffffff82111715620013c157620013c062001365565b5b80604052505050565b6000620013d662000eee565b9050620013e4828262001394565b919050565b600067ffffffffffffffff82111562001407576200140662001365565b5b620014128262001019565b9050602081019050919050565b6000620014366200143084620013e9565b620013ca565b90508281526020810184848401111562001455576200145462001360565b5b6200146284828562000fe3565b509392505050565b600082601f8301126200148257620014816200114f565b5b8151620014948482602086016200141f565b91505092915050565b600060208284031215620014b657620014b562000ef8565b5b600082015167ffffffffffffffff811115620014d757620014d662000efd565b5b620014e5848285016200146a565b91505092915050565b7f5265656e7472616e637947756172643a207265656e7472616e742063616c6c00600082015250565b600062001526601f8362000fd2565b91506200153382620014ee565b602082019050919050565b60006020820190508181036000830152620015598162001517565b9050919050565b7f4d696e74696e67207072696365206e6f74207361746973666965642e00000000600082015250565b600062001598601c8362000fd2565b9150620015a58262001560565b602082019050919050565b60006020820190508181036000830152620015cb8162001589565b9050919050565b600081519050620015e381620011bd565b92915050565b60006020828403121562001602576200160162000ef8565b5b60006200161284828501620015d2565b91505092915050565b600060408201905062001632600083018562000f99565b62001641602083018462001099565b9392505050565b82818337600083830152505050565b600062001665838562000fd2565b93506200167483858462001648565b6200167f8362001019565b840190509392505050565b600060c0820190508181036000830152620016a7818c8e62001657565b90508181036020830152620016be818a8c62001657565b90508181036040830152620016d581888a62001657565b90508181036060830152620016ec81868862001657565b9050620016fd608083018562001099565b6200170c60a083018462001099565b9b9a5050505050505050505050565b600060408201905062001732600083018562000f99565b62001741602083018462000f99565b939250505056fe60806040523480156200001157600080fd5b50604051620032e3380380620032e383398181016040528101906200003791906200042f565b8585816000908051906020019062000051929190620001a7565b5080600190805190602001906200006a929190620001a7565b5050506200008d62000081620000d960201b60201c565b620000e160201b60201c565b81600b8190555082600a9080519060200190620000ac929190620001a7565b508360099080519060200190620000c5929190620001a7565b5080600c81905550505050505050620005ab565b600033905090565b6000600760009054906101000a900473ffffffffffffffffffffffffffffffffffffffff16905081600760006101000a81548173ffffffffffffffffffffffffffffffffffffffff021916908373ffffffffffffffffffffffffffffffffffffffff1602179055508173ffffffffffffffffffffffffffffffffffffffff168173ffffffffffffffffffffffffffffffffffffffff167f8be0079c531659141344cd1fd0a4f28419497f9722a3daafe3b4186f6b6457e060405160405180910390a35050565b828054620001b59062000576565b90600052602060002090601f016020900481019282620001d9576000855562000225565b82601f10620001f457805160ff191683800117855562000225565b8280016001018555821562000225579182015b828111156200022457825182559160200191906001019062000207565b5b50905062000234919062000238565b5090565b5b808211156200025357600081600090555060010162000239565b5090565b6000604051905090565b600080fd5b600080fd5b600080fd5b600080fd5b6000601f19601f8301169050919050565b7f4e487b7100000000000000000000000000000000000000000000000000000000600052604160045260246000fd5b620002c08262000275565b810181811067ffffffffffffffff82111715620002e257620002e162000286565b5b80604052505050565b6000620002f762000257565b9050620003058282620002b5565b919050565b600067ffffffffffffffff82111562000328576200032762000286565b5b620003338262000275565b9050602081019050919050565b60005b838110156200036057808201518184015260208101905062000343565b8381111562000370576000848401525b50505050565b60006200038d62000387846200030a565b620002eb565b905082815260208101848484011115620003ac57620003ab62000270565b5b620003b984828562000340565b509392505050565b600082601f830112620003d957620003d86200026b565b5b8151620003eb84826020860162000376565b91505092915050565b6000819050919050565b6200040981620003f4565b81146200041557600080fd5b50565b6000815190506200042981620003fe565b92915050565b60008060008060008060c087890312156200044f576200044e62000261565b5b600087015167ffffffffffffffff81111562000470576200046f62000266565b5b6200047e89828a01620003c1565b965050602087015167ffffffffffffffff811115620004a257620004a162000266565b5b620004b089828a01620003c1565b955050604087015167ffffffffffffffff811115620004d457620004d362000266565b5b620004e289828a01620003c1565b945050606087015167ffffffffffffffff81111562000506576200050562000266565b5b6200051489828a01620003c1565b93505060806200052789828a0162000418565b92505060a06200053a89828a0162000418565b9150509295509295509295565b7f4e487b7100000000000000000000000000000000000000000000000000000000600052602260045260246000fd5b600060028204905060018216806200058f57607f821691505b602082108103620005a557620005a462000547565b5b50919050565b612d2880620005bb6000396000f3fe60806040526004361061012a5760003560e01c8063715018a6116100ab578063c87b56dd1161006f578063c87b56dd146103d1578063d547cfb71461040e578063d5abeb0114610439578063e05d34b314610464578063e985e9c51461048f578063f2fde38b146104cc5761012a565b8063715018a6146103125780638da5cb5b1461032957806395d89b4114610354578063a22cb4651461037f578063b88d4fde146103a85761012a565b806313966db5116100f257806313966db51461021b57806323b872dd1461024657806342842e0e1461026f5780636352211e1461029857806370a08231146102d55761012a565b806301ffc9a71461012f57806306fdde031461016c578063081812fc14610197578063095ea7b3146101d45780631249c58b146101fd575b600080fd5b34801561013b57600080fd5b5061015660048036038101906101519190611d1f565b6104f5565b6040516101639190611d67565b60405180910390f35b34801561017857600080fd5b506101816105d7565b60405161018e9190611e1b565b60405180910390f35b3480156101a357600080fd5b506101be60048036038101906101b99190611e73565b610669565b6040516101cb9190611ee1565b60405180910390f35b3480156101e057600080fd5b506101fb60048036038101906101f69190611f28565b6106af565b005b6102056107c6565b6040516102129190611f77565b60405180910390f35b34801561022757600080fd5b5061023061083e565b60405161023d9190611f77565b60405180910390f35b34801561025257600080fd5b5061026d60048036038101906102689190611f92565b610844565b005b34801561027b57600080fd5b5061029660048036038101906102919190611f92565b6108a4565b005b3480156102a457600080fd5b506102bf60048036038101906102ba9190611e73565b6108c4565b6040516102cc9190611ee1565b60405180910390f35b3480156102e157600080fd5b506102fc60048036038101906102f79190611fe5565b610975565b6040516103099190611f77565b60405180910390f35b34801561031e57600080fd5b50610327610a2c565b005b34801561033557600080fd5b5061033e610a40565b60405161034b9190611ee1565b60405180910390f35b34801561036057600080fd5b50610369610a6a565b6040516103769190611e1b565b60405180910390f35b34801561038b57600080fd5b506103a660048036038101906103a1919061203e565b610afc565b005b3480156103b457600080fd5b506103cf60048036038101906103ca91906121b3565b610b12565b005b3480156103dd57600080fd5b506103f860048036038101906103f39190611e73565b610b74565b6040516104059190611e1b565b60405180910390f35b34801561041a57600080fd5b50610423610c86565b6040516104309190611e1b565b60405180910390f35b34801561044557600080fd5b5061044e610d14565b60405161045b9190611f77565b60405180910390f35b34801561047057600080fd5b50610479610d1a565b6040516104869190611e1b565b60405180910390f35b34801561049b57600080fd5b506104b660048036038101906104b19190612236565b610da8565b6040516104c39190611d67565b60405180910390f35b3480156104d857600080fd5b506104f360048036038101906104ee9190611fe5565b610e3c565b005b60007f80ac58cd000000000000000000000000000000000000000000000000000000007bffffffffffffffffffffffffffffffffffffffffffffffffffffffff1916827bffffffffffffffffffffffffffffffffffffffffffffffffffffffff191614806105c057507f5b5e139f000000000000000000000000000000000000000000000000000000007bffffffffffffffffffffffffffffffffffffffffffffffffffffffff1916827bffffffffffffffffffffffffffffffffffffffffffffffffffffffff1916145b806105d057506105cf82610ebf565b5b9050919050565b6060600080546105e6906122a5565b80601f0160208091040260200160405190810160405280929190818152602001828054610612906122a5565b801561065f5780601f106106345761010080835404028352916020019161065f565b820191906000526020600020905b81548152906001019060200180831161064257829003601f168201915b5050505050905090565b600061067482610f29565b6004600083815260200190815260200160002060009054906101000a900473ffffffffffffffffffffffffffffffffffffffff169050919050565b60006106ba826108c4565b90508073ffffffffffffffffffffffffffffffffffffffff168373ffffffffffffffffffffffffffffffffffffffff160361072a576040517f08c379a000000000000000000000000000000000000000000000000000000000815260040161072190612348565b60405180910390fd5b8073ffffffffffffffffffffffffffffffffffffffff16610749610f74565b73ffffffffffffffffffffffffffffffffffffffff161480610778575061077781610772610f74565b610da8565b5b6107b7576040517f08c379a00000000000000000000000000000000000000000000000000000000081526004016107ae906123da565b60405180910390fd5b6107c18383610f7c565b505050565b6000600b546107d56008611035565b10610815576040517f08c379a000000000000000000000000000000000000000000000000000000000815260040161080c90612446565b60405180910390fd5b60006108216008611035565b905061082d6008611043565b6108373382611059565b8091505090565b600c5481565b61085561084f610f74565b82611232565b610894576040517f08c379a000000000000000000000000000000000000000000000000000000000815260040161088b906124d8565b60405180910390fd5b61089f8383836112c7565b505050565b6108bf83838360405180602001604052806000815250610b12565b505050565b6000806002600084815260200190815260200160002060009054906101000a900473ffffffffffffffffffffffffffffffffffffffff169050600073ffffffffffffffffffffffffffffffffffffffff168173ffffffffffffffffffffffffffffffffffffffff160361096c576040517f08c379a000000000000000000000000000000000000000000000000000000000815260040161096390612544565b60405180910390fd5b80915050919050565b60008073ffffffffffffffffffffffffffffffffffffffff168273ffffffffffffffffffffffffffffffffffffffff16036109e5576040517f08c379a00000000000000000000000000000000000000000000000000000000081526004016109dc906125d6565b60405180910390fd5b600360008373ffffffffffffffffffffffffffffffffffffffff1673ffffffffffffffffffffffffffffffffffffffff168152602001908152602001600020549050919050565b610a3461152d565b610a3e60006115ab565b565b6000600760009054906101000a900473ffffffffffffffffffffffffffffffffffffffff16905090565b606060018054610a79906122a5565b80601f0160208091040260200160405190810160405280929190818152602001828054610aa5906122a5565b8015610af25780601f10610ac757610100808354040283529160200191610af2565b820191906000526020600020905b815481529060010190602001808311610ad557829003601f168201915b5050505050905090565b610b0e610b07610f74565b8383611671565b5050565b610b23610b1d610f74565b83611232565b610b62576040517f08c379a0000000000000000000000000000000000000000000000000000000008152600401610b59906124d8565b60405180910390fd5b610b6e848484846117dd565b50505050565b6060610b7f82610f29565b6000600660008481526020019081526020016000208054610b9f906122a5565b80601f0160208091040260200160405190810160405280929190818152602001828054610bcb906122a5565b8015610c185780601f10610bed57610100808354040283529160200191610c18565b820191906000526020600020905b815481529060010190602001808311610bfb57829003601f168201915b505050505090506000610c29611839565b90506000815103610c3e578192505050610c81565b600082511115610c73578082604051602001610c5b929190612632565b60405160208183030381529060405292505050610c81565b610c7c846118cb565b925050505b919050565b60098054610c93906122a5565b80601f0160208091040260200160405190810160405280929190818152602001828054610cbf906122a5565b8015610d0c5780601f10610ce157610100808354040283529160200191610d0c565b820191906000526020600020905b815481529060010190602001808311610cef57829003601f168201915b505050505081565b600b5481565b600a8054610d27906122a5565b80601f0160208091040260200160405190810160405280929190818152602001828054610d53906122a5565b8015610da05780601f10610d7557610100808354040283529160200191610da0565b820191906000526020600020905b815481529060010190602001808311610d8357829003601f168201915b505050505081565b6000600560008473ffffffffffffffffffffffffffffffffffffffff1673ffffffffffffffffffffffffffffffffffffffff16815260200190815260200160002060008373ffffffffffffffffffffffffffffffffffffffff1673ffffffffffffffffffffffffffffffffffffffff16815260200190815260200160002060009054906101000a900460ff16905092915050565b610e4461152d565b600073ffffffffffffffffffffffffffffffffffffffff168173ffffffffffffffffffffffffffffffffffffffff1603610eb3576040517f08c379a0000000000000000000000000000000000000000000000000000000008152600401610eaa906126c8565b60405180910390fd5b610ebc816115ab565b50565b60007f01ffc9a7000000000000000000000000000000000000000000000000000000007bffffffffffffffffffffffffffffffffffffffffffffffffffffffff1916827bffffffffffffffffffffffffffffffffffffffffffffffffffffffff1916149050919050565b610f3281611933565b610f71576040517f08c379a0000000000000000000000000000000000000000000000000000000008152600401610f6890612544565b60405180910390fd5b50565b600033905090565b816004600083815260200190815260200160002060006101000a81548173ffffffffffffffffffffffffffffffffffffffff021916908373ffffffffffffffffffffffffffffffffffffffff160217905550808273ffffffffffffffffffffffffffffffffffffffff16610fef836108c4565b73ffffffffffffffffffffffffffffffffffffffff167f8c5be1e5ebec7d5bd14f71427d1e84f3dd0314c0f7b2291e5b200ac8c7c3b92560405160405180910390a45050565b600081600001549050919050565b6001816000016000828254019250508190555050565b600073ffffffffffffffffffffffffffffffffffffffff168273ffffffffffffffffffffffffffffffffffffffff16036110c8576040517f08c379a00000000000000000000000000000000000000000000000000000000081526004016110bf90612734565b60405180910390fd5b6110d181611933565b15611111576040517f08c379a0000000000000000000000000000000000000000000000000000000008152600401611108906127a0565b60405180910390fd5b61111d6000838361199f565b6001600360008473ffffffffffffffffffffffffffffffffffffffff1673ffffffffffffffffffffffffffffffffffffffff168152602001908152602001600020600082825461116d91906127ef565b92505081905550816002600083815260200190815260200160002060006101000a81548173ffffffffffffffffffffffffffffffffffffffff021916908373ffffffffffffffffffffffffffffffffffffffff160217905550808273ffffffffffffffffffffffffffffffffffffffff16600073ffffffffffffffffffffffffffffffffffffffff167fddf252ad1be2c89b69c2b068fc378daa952ba7f163c4a11628f55a4df523b3ef60405160405180910390a461122e600083836119a4565b5050565b60008061123e836108c4565b90508073ffffffffffffffffffffffffffffffffffffffff168473ffffffffffffffffffffffffffffffffffffffff161480611280575061127f8185610da8565b5b806112be57508373ffffffffffffffffffffffffffffffffffffffff166112a684610669565b73ffffffffffffffffffffffffffffffffffffffff16145b91505092915050565b8273ffffffffffffffffffffffffffffffffffffffff166112e7826108c4565b73ffffffffffffffffffffffffffffffffffffffff161461133d576040517f08c379a0000000000000000000000000000000000000000000000000000000008152600401611334906128b7565b60405180910390fd5b600073ffffffffffffffffffffffffffffffffffffffff168273ffffffffffffffffffffffffffffffffffffffff16036113ac576040517f08c379a00000000000000000000000000000000000000000000000000000000081526004016113a390612949565b60405180910390fd5b6113b783838361199f565b6113c2600082610f7c565b6001600360008573ffffffffffffffffffffffffffffffffffffffff1673ffffffffffffffffffffffffffffffffffffffff16815260200190815260200160002060008282546114129190612969565b925050819055506001600360008473ffffffffffffffffffffffffffffffffffffffff1673ffffffffffffffffffffffffffffffffffffffff168152602001908152602001600020600082825461146991906127ef565b92505081905550816002600083815260200190815260200160002060006101000a81548173ffffffffffffffffffffffffffffffffffffffff021916908373ffffffffffffffffffffffffffffffffffffffff160217905550808273ffffffffffffffffffffffffffffffffffffffff168473ffffffffffffffffffffffffffffffffffffffff167fddf252ad1be2c89b69c2b068fc378daa952ba7f163c4a11628f55a4df523b3ef60405160405180910390a46115288383836119a4565b505050565b611535610f74565b73ffffffffffffffffffffffffffffffffffffffff16611553610a40565b73ffffffffffffffffffffffffffffffffffffffff16146115a9576040517f08c379a00000000000000000000000000000000000000000000000000000000081526004016115a0906129e9565b60405180910390fd5b565b6000600760009054906101000a900473ffffffffffffffffffffffffffffffffffffffff16905081600760006101000a81548173ffffffffffffffffffffffffffffffffffffffff021916908373ffffffffffffffffffffffffffffffffffffffff1602179055508173ffffffffffffffffffffffffffffffffffffffff168173ffffffffffffffffffffffffffffffffffffffff167f8be0079c531659141344cd1fd0a4f28419497f9722a3daafe3b4186f6b6457e060405160405180910390a35050565b8173ffffffffffffffffffffffffffffffffffffffff168373ffffffffffffffffffffffffffffffffffffffff16036116df576040517f08c379a00000000000000000000000000000000000000000000000000000000081526004016116d690612a55565b60405180910390fd5b80600560008573ffffffffffffffffffffffffffffffffffffffff1673ffffffffffffffffffffffffffffffffffffffff16815260200190815260200160002060008473ffffffffffffffffffffffffffffffffffffffff1673ffffffffffffffffffffffffffffffffffffffff16815260200190815260200160002060006101000a81548160ff0219169083151502179055508173ffffffffffffffffffffffffffffffffffffffff168373ffffffffffffffffffffffffffffffffffffffff167f17307eab39ab6107e8899845ad3d59bd9653f200f220920489ca2b5937696c31836040516117d09190611d67565b60405180910390a3505050565b6117e88484846112c7565b6117f4848484846119a9565b611833576040517f08c379a000000000000000000000000000000000000000000000000000000000815260040161182a90612ae7565b60405180910390fd5b50505050565b606060098054611848906122a5565b80601f0160208091040260200160405190810160405280929190818152602001828054611874906122a5565b80156118c15780601f10611896576101008083540402835291602001916118c1565b820191906000526020600020905b8154815290600101906020018083116118a457829003601f168201915b5050505050905090565b60606118d682610f29565b60006118e0611839565b90506000815111611900576040518060200160405280600081525061192b565b8061190a84611b30565b60405160200161191b929190612632565b6040516020818303038152906040525b915050919050565b60008073ffffffffffffffffffffffffffffffffffffffff166002600084815260200190815260200160002060009054906101000a900473ffffffffffffffffffffffffffffffffffffffff1673ffffffffffffffffffffffffffffffffffffffff1614159050919050565b505050565b505050565b60006119ca8473ffffffffffffffffffffffffffffffffffffffff16611c90565b15611b23578373ffffffffffffffffffffffffffffffffffffffff1663150b7a026119f3610f74565b8786866040518563ffffffff1660e01b8152600401611a159493929190612b5c565b6020604051808303816000875af1925050508015611a5157506040513d601f19601f82011682018060405250810190611a4e9190612bbd565b60015b611ad3573d8060008114611a81576040519150601f19603f3d011682016040523d82523d6000602084013e611a86565b606091505b506000815103611acb576040517f08c379a0000000000000000000000000000000000000000000000000000000008152600401611ac290612ae7565b60405180910390fd5b805181602001fd5b63150b7a0260e01b7bffffffffffffffffffffffffffffffffffffffffffffffffffffffff1916817bffffffffffffffffffffffffffffffffffffffffffffffffffffffff191614915050611b28565b600190505b949350505050565b606060008203611b77576040518060400160405280600181526020017f30000000000000000000000000000000000000000000000000000000000000008152509050611c8b565b600082905060005b60008214611ba9578080611b9290612bea565b915050600a82611ba29190612c61565b9150611b7f565b60008167ffffffffffffffff811115611bc557611bc4612088565b5b6040519080825280601f01601f191660200182016040528015611bf75781602001600182028036833780820191505090505b5090505b60008514611c8457600182611c109190612969565b9150600a85611c1f9190612c92565b6030611c2b91906127ef565b60f81b818381518110611c4157611c40612cc3565b5b60200101907effffffffffffffffffffffffffffffffffffffffffffffffffffffffffffff1916908160001a905350600a85611c7d9190612c61565b9450611bfb565b8093505050505b919050565b6000808273ffffffffffffffffffffffffffffffffffffffff163b119050919050565b6000604051905090565b600080fd5b600080fd5b60007fffffffff0000000000000000000000000000000000000000000000000000000082169050919050565b611cfc81611cc7565b8114611d0757600080fd5b50565b600081359050611d1981611cf3565b92915050565b600060208284031215611d3557611d34611cbd565b5b6000611d4384828501611d0a565b91505092915050565b60008115159050919050565b611d6181611d4c565b82525050565b6000602082019050611d7c6000830184611d58565b92915050565b600081519050919050565b600082825260208201905092915050565b60005b83811015611dbc578082015181840152602081019050611da1565b83811115611dcb576000848401525b50505050565b6000601f19601f8301169050919050565b6000611ded82611d82565b611df78185611d8d565b9350611e07818560208601611d9e565b611e1081611dd1565b840191505092915050565b60006020820190508181036000830152611e358184611de2565b905092915050565b6000819050919050565b611e5081611e3d565b8114611e5b57600080fd5b50565b600081359050611e6d81611e47565b92915050565b600060208284031215611e8957611e88611cbd565b5b6000611e9784828501611e5e565b91505092915050565b600073ffffffffffffffffffffffffffffffffffffffff82169050919050565b6000611ecb82611ea0565b9050919050565b611edb81611ec0565b82525050565b6000602082019050611ef66000830184611ed2565b92915050565b611f0581611ec0565b8114611f1057600080fd5b50565b600081359050611f2281611efc565b92915050565b60008060408385031215611f3f57611f3e611cbd565b5b6000611f4d85828601611f13565b9250506020611f5e85828601611e5e565b9150509250929050565b611f7181611e3d565b82525050565b6000602082019050611f8c6000830184611f68565b92915050565b600080600060608486031215611fab57611faa611cbd565b5b6000611fb986828701611f13565b9350506020611fca86828701611f13565b9250506040611fdb86828701611e5e565b9150509250925092565b600060208284031215611ffb57611ffa611cbd565b5b600061200984828501611f13565b91505092915050565b61201b81611d4c565b811461202657600080fd5b50565b60008135905061203881612012565b92915050565b6000806040838503121561205557612054611cbd565b5b600061206385828601611f13565b925050602061207485828601612029565b9150509250929050565b600080fd5b600080fd5b7f4e487b7100000000000000000000000000000000000000000000000000000000600052604160045260246000fd5b6120c082611dd1565b810181811067ffffffffffffffff821117156120df576120de612088565b5b80604052505050565b60006120f2611cb3565b90506120fe82826120b7565b919050565b600067ffffffffffffffff82111561211e5761211d612088565b5b61212782611dd1565b9050602081019050919050565b82818337600083830152505050565b600061215661215184612103565b6120e8565b90508281526020810184848401111561217257612171612083565b5b61217d848285612134565b509392505050565b600082601f83011261219a5761219961207e565b5b81356121aa848260208601612143565b91505092915050565b600080600080608085870312156121cd576121cc611cbd565b5b60006121db87828801611f13565b94505060206121ec87828801611f13565b93505060406121fd87828801611e5e565b925050606085013567ffffffffffffffff81111561221e5761221d611cc2565b5b61222a87828801612185565b91505092959194509250565b6000806040838503121561224d5761224c611cbd565b5b600061225b85828601611f13565b925050602061226c85828601611f13565b9150509250929050565b7f4e487b7100000000000000000000000000000000000000000000000000000000600052602260045260246000fd5b600060028204905060018216806122bd57607f821691505b6020821081036122d0576122cf612276565b5b50919050565b7f4552433732313a20617070726f76616c20746f2063757272656e74206f776e6560008201527f7200000000000000000000000000000000000000000000000000000000000000602082015250565b6000612332602183611d8d565b915061233d826122d6565b604082019050919050565b6000602082019050818103600083015261236181612325565b9050919050565b7f4552433732313a20617070726f76652063616c6c6572206973206e6f7420746f60008201527f6b656e206f776e6572206e6f7220617070726f76656420666f7220616c6c0000602082015250565b60006123c4603e83611d8d565b91506123cf82612368565b604082019050919050565b600060208201905081810360008301526123f3816123b7565b9050919050565b7f4d617820737570706c7920616c726561647920726561636865642e0000000000600082015250565b6000612430601b83611d8d565b915061243b826123fa565b602082019050919050565b6000602082019050818103600083015261245f81612423565b9050919050565b7f4552433732313a2063616c6c6572206973206e6f7420746f6b656e206f776e6560008201527f72206e6f7220617070726f766564000000000000000000000000000000000000602082015250565b60006124c2602e83611d8d565b91506124cd82612466565b604082019050919050565b600060208201905081810360008301526124f1816124b5565b9050919050565b7f4552433732313a20696e76616c696420746f6b656e2049440000000000000000600082015250565b600061252e601883611d8d565b9150612539826124f8565b602082019050919050565b6000602082019050818103600083015261255d81612521565b9050919050565b7f4552433732313a2061646472657373207a65726f206973206e6f74206120766160008201527f6c6964206f776e65720000000000000000000000000000000000000000000000602082015250565b60006125c0602983611d8d565b91506125cb82612564565b604082019050919050565b600060208201905081810360008301526125ef816125b3565b9050919050565b600081905092915050565b600061260c82611d82565b61261681856125f6565b9350612626818560208601611d9e565b80840191505092915050565b600061263e8285612601565b915061264a8284612601565b91508190509392505050565b7f4f776e61626c653a206e6577206f776e657220697320746865207a65726f206160008201527f6464726573730000000000000000000000000000000000000000000000000000602082015250565b60006126b2602683611d8d565b91506126bd82612656565b604082019050919050565b600060208201905081810360008301526126e1816126a5565b9050919050565b7f4552433732313a206d696e7420746f20746865207a65726f2061646472657373600082015250565b600061271e602083611d8d565b9150612729826126e8565b602082019050919050565b6000602082019050818103600083015261274d81612711565b9050919050565b7f4552433732313a20746f6b656e20616c7265616479206d696e74656400000000600082015250565b600061278a601c83611d8d565b915061279582612754565b602082019050919050565b600060208201905081810360008301526127b98161277d565b9050919050565b7f4e487b7100000000000000000000000000000000000000000000000000000000600052601160045260246000fd5b60006127fa82611e3d565b915061280583611e3d565b9250827fffffffffffffffffffffffffffffffffffffffffffffffffffffffffffffffff0382111561283a576128396127c0565b5b828201905092915050565b7f4552433732313a207472616e736665722066726f6d20696e636f72726563742060008201527f6f776e6572000000000000000000000000000000000000000000000000000000602082015250565b60006128a1602583611d8d565b91506128ac82612845565b604082019050919050565b600060208201905081810360008301526128d081612894565b9050919050565b7f4552433732313a207472616e7366657220746f20746865207a65726f2061646460008201527f7265737300000000000000000000000000000000000000000000000000000000602082015250565b6000612933602483611d8d565b915061293e826128d7565b604082019050919050565b6000602082019050818103600083015261296281612926565b9050919050565b600061297482611e3d565b915061297f83611e3d565b925082821015612992576129916127c0565b5b828203905092915050565b7f4f776e61626c653a2063616c6c6572206973206e6f7420746865206f776e6572600082015250565b60006129d3602083611d8d565b91506129de8261299d565b602082019050919050565b60006020820190508181036000830152612a02816129c6565b9050919050565b7f4552433732313a20617070726f766520746f2063616c6c657200000000000000600082015250565b6000612a3f601983611d8d565b9150612a4a82612a09565b602082019050919050565b60006020820190508181036000830152612a6e81612a32565b9050919050565b7f4552433732313a207472616e7366657220746f206e6f6e20455243373231526560008201527f63656976657220696d706c656d656e7465720000000000000000000000000000602082015250565b6000612ad1603283611d8d565b9150612adc82612a75565b604082019050919050565b60006020820190508181036000830152612b0081612ac4565b9050919050565b600081519050919050565b600082825260208201905092915050565b6000612b2e82612b07565b612b388185612b12565b9350612b48818560208601611d9e565b612b5181611dd1565b840191505092915050565b6000608082019050612b716000830187611ed2565b612b7e6020830186611ed2565b612b8b6040830185611f68565b8181036060830152612b9d8184612b23565b905095945050505050565b600081519050612bb781611cf3565b92915050565b600060208284031215612bd357612bd2611cbd565b5b6000612be184828501612ba8565b91505092915050565b6000612bf582611e3d565b91507fffffffffffffffffffffffffffffffffffffffffffffffffffffffffffffffff8203612c2757612c266127c0565b5b600182019050919050565b7f4e487b7100000000000000000000000000000000000000000000000000000000600052601260045260246000fd5b6000612c6c82611e3d565b9150612c7783611e3d565b925082612c8757612c86612c32565b5b828204905092915050565b6000612c9d82611e3d565b9150612ca883611e3d565b925082612cb857612cb7612c32565b5b828206905092915050565b7f4e487b7100000000000000000000000000000000000000000000000000000000600052603260045260246000fdfea264697066735822122053f46eba01570700818d34fdd8c428bd67ebc403f847ada35182d318e2c8a2ee64736f6c634300080e0033a26469706673582212208b76f640cb1f613db9ef8efde7122158bb9f46ddacdff23134ff8653a59d2b7b64736f6c634300080e0033",
  "linkReferences": {},
  "deployedLinkReferences": {}
}